:0400000095EF16F072
:08000800046ED8CF05F0E0CF33
:1000100006F00001E9CF0CF0EACF07F0E1CF08F0DD
:10002000E2CF09F0D9CF0AF0DACF0BF0F3CF12F01C
:10003000F4CF13F0FACF14F000C00EF001C00FF0AF
:1000400002C010F003C011F0F2AA2AEF00F0F2B4DF
:10005000CBEF05F00EC000F00FC001F010C002F0B1
:1000600011C003F00CC0E9FF07C0EAFF078E08C00B
:10007000E1FF09C0E2FF0AC0D9FF0BC0DAFF12C0DE
:10008000F3FF13C0F4FF14C0FAFF045006C0E0FFF2
:1000900005C0D8FF1000F2CF0DF0F29EF76AB00F46
:1000A000F66E000EF7220900F5500DBEF28E12001A
:1000B000000000000000005F0000000700070014BF
:1000C0007F147F14242A7F2A12231308646236497E
:1000D0005620500008070300001C22410000412266
:1000E0001C002A1C7F1C2A08083E0808008070306B
:1000F00000080808080800006060002010080402DA
:100100003E5149453E00427F4000724949494621DF
:1001100041494D331814127F1027454545393C4A53
:10012000494931412111090736494949364649496A
:10013000291E0000140000004034000000081422B2
:100140004114141414140041221408020159090620
:100150003E415D594E7C1211127C7F494949363E21
:10016000414141227F4141413E7F494949417F0907
:100170000909013E414151737F0808087F00417F12
:1001800041002040413F017F081422417F40404010
:10019000407F021C027F7F0408107F3E4141413EA8
:1001A0007F090909063E4151215E7F091929460050
:1001B000F2CF0DF0F29EF76ACA0FF66E010EF7222B
:1001C0000900F5500DBEF28E12002649494932034E
:1001D000017F01033F4040403F1F2040201F3F4020
:1001E00038403F63140814630304780403615949D9
:1001F0004D43007F4141410204081020004141412C
:100200007F04020102044040404040000307080010
:1002100020545478407F2844443838444444283893
:100220004444287F385454541800087E090218A406
:10023000A49C787F0804047800447D40002040405E
:100240003D007F1028440000417F40007C0478047A
:10025000787C080404783844444438FC1824241872
:1002600018242418FC7C080404084854545424041A
:10027000043F44243C4040207C1C2040201C3C4047
:1002800030403C44281028444C9090907C44645466
:100290004C44000836410000007700000041360859
:1002A000000201020402060148514919800B4B6FFC
:1002B00048AF02D0481F482B49AF02D0491F492BF5
:1002C0004951016A485D03E248C600F00CD0006A5B
:1002D000080E4A6F483700364951005CD8B0006EAE
:1002E00001364A2FF7D74BAF02D0011E012A000179
:1002F000000C080E016E00008A9293920000060125
:1003000047378A90D8B09380D8A09390938281A2E7
:10031000FED7012E01D002D00001EDD700008A9255
:1003200093920000938000000000938281A2FED788
:10033000016A000081B001808A9293928A90939022
:100340000001000C060EEA6E470EE96EEF500DE05C
:10035000060E016E006A002EFED7012EFBD77B0E23
:10036000006E002EFED7EF2EF3D7000C42C648F6E3
:100370000A0E0601496F000196DF01380601476F3A
:10038000F00E471742C648F60A0E496F00018BDF90
:10039000005006014725426F41C648F60A0E496FD4
:1003A000000181DF01380601476FF00E471741C693
:1003B00048F60A0E496F000176DF00500601472516
:1003C000416F44C648F60A0E496F00016CDF0138E0
:1003D0000601476FF00E471744C648F60A0E496FEC
:1003E000000161DF005006014725446F45C648F60D
:1003F0000A0E496F000157DF01380601476FF00E02
:10040000471745C648F60A0E496F00014CDF0050F9
:1004100006014725456F46C648F60A0E496F00019A
:1004200042DF01380601476FF00E471746C648F60F
:100430000A0E496F000137DF005006014725466F5D
:1004400093800000938200008A90939000008A922B
:100450009392D00E476F00014CDF0601476B0001FD
:1004600048DF0601476B000144DF42C647F641DF23
:1004700041C647F63EDF43C647F63BDF44C647F674
:1004800038DF45C647F635DF46C647F632DF93907C
:100490000000938281A2FED7000000D0000093806C
:1004A0000000C80E0601476F00014CDF000C958666
:1004B00083B614D005016D6B0A0E6C6F6C5302E1AC
:1004C0006D5305E06C51D8B46D076C07F7D795866E
:1004D00083B602D01C96FBD71C8600011CA60BD04D
:1004E00005017C53D8B402D0000105D0010E7C6F09
:1004F0007B6F1C9600011CA610D005017C2D01D03D
:1005000002D000010AD07F53D8B402D0000105D038
:10051000010E7F6F7E6F1C9600011CA611D0050195
:100520007C510208D8B402D000010AD08253D8B45A
:1005300002D0000105D0010E826F816F1C96000170
:100540001CA611D005017C510308D8B402D00001CB
:100550000AD08553D8B402D0000105D0010E856FB2
:10056000846F1C9600011CA618D005017C5104085C
:10057000D8B402D0000111D07853D8B402D0000111
:100580000CD07953D8B402D0000107D0796B010E9A
:10059000786F776B766F1C9600011CA61DD0050145
:1005A0007E2D01D002D0000117D07F2B7F51020891
:1005B00011E27E6B7F6B67C541F666C542F668C582
:1005C00043F669C544F66AC545F66BC546F60001B3
:1005D000CDDE05011C9600011CA61DD00501812D54
:1005E00001D002D0000117D0822B8251040811E201
:1005F000816B826B67C541F666C542F668C543F6F6
:1006000069C544F66AC545F66BC546F60001AEDE1F
:1006100005011C9600011CA622D00501842D01D0E5
:1006200002D000011CD08553D8A402D0000117D0FD
:10063000852D03D06283629562978551020803E19C
:100640006293628562978551030803E16293629524
:100650006287855302E0846B856B1C9600011CA6A3
:1006600019D00501762D01D002D0000113D07753A7
:10067000D8B402D000010ED0782BD8B4792B79539E
:1006800003E17851010804E2776B766B796B786B44
:100690001C960001958083B013D005016D6B0A0E86
:1006A0006C6F6C5302E16D5305E06C51D8B46D076B
:1006B0006C07F7D7958083B002D01C88FBD7000168
:1006C0001CA823D005017C53D8A402D000011DD062
:1006D0007F53D8B402D0000118D08253D8B402D0CE
:1006E000000113D08553D8B402D000010ED0785346
:1006F000D8B402D0000109D07953D8B402D0000197
:1007000004D07C6B7B6B1C9800011CA811D00501E8
:100710007C53D8A402D000010BD07F53D8A402D0C0
:10072000000106D07F077F53D8B47E6B1C98000170
:100730001CA811D005017C53D8A402D000010BD015
:100740008253D8A402D0000106D082078253D8B4C5
:10075000816B1C9800011CA811D005018553D8A4F9
:1007600002D000010BD08453D8A402D0000106D0DF
:1007700085078553D8B4846B1C9800011CA81BD036
:100780000501785305E17953D8A402D0000113D0B4
:10079000765305E17753D8A402D000010CD07851EC
:1007A000D8B479077807785304E1795302E1776B7D
:1007B000766B1C980001958283B213D005016D6B96
:1007C0000A0E6C6F6C5302E16D5305E06C51D8B4A6
:1007D0006D076C07F7D7958283B202D01C8CFBD7CC
:1007E00000011CAC2BD005017C53D8A402D0000121
:1007F00025D07B2D01D002D0000120D07E53D8B46B
:1008000002D000011BD08153D8B402D0000116D011
:100810008453D8B402D0000111D07653D8B402D09A
:1008200000010CD07753D8B402D0000107D07C0768
:100830007C5302E1040E7C6F1C9C00011CAC27D091
:100840000501822D01D002D0000121D06A2B6A510E
:10085000040809E06A51060806E06A51090803E045
:100860006A510C0803E162811C9E08D06A5102089B
:1008700003E11C8E629102D01C9E62916ABF05D07A
:100880006A510C0802E2010E6A6F1C9C00011CAC4C
:1008900025D0050182510208D8B402D000011ED033
:1008A000692B62A108D069BF05D069511E0802E218
:1008B000010E696F11D01CAE08D069BF05D0695117
:1008C0001C0802E2010E696F07D069BF05D06951AB
:1008D0001F0802E2010E696F1C9C00011CAC11D0C4
:1008E000050182510308D8B402D000010AD06B2B55
:1008F0006BBF05D06B513C0802E20A0E6B6F1C9C6B
:1009000000011CAC11D0050182510408D8B402D0FA
:1009100000010AD0682B68BF05D06851070802E2C1
:10092000010E686F1C9C00011CAC10D005017F2DCE
:1009300001D002D000010AD067BF03D0675116086A
:1009400002E3672B01D0676B1C9C00011CAC10D02C
:1009500005017F510208D8B402D0000109D0662BEE
:1009600066BF04D066513B08D8A0666B1C9C000192
:100970001CAC0DD00501842D01D002D0000107D0A0
:100980008507855302E1030E856F1C9C0001958449
:1009900083B413D005016D6B0A0E6C6F6C5302E1CA
:1009A0006D5305E06C51D8B46D076C07F7D795848B
:1009B00083B402D01C8AFBD700011CAA2CD00501ED
:1009C0007C53D8A402D0000126D07B2D01D002D0C8
:1009D000000121D07E53D8B402D000011CD0815335
:1009E000D8B402D0000117D08453D8B402D000018B
:1009F00012D07653D8B402D000010DD07753D8B4BA
:100A000002D0000108D07C2B7C51040802E2010EC8
:100A10007C6F1C9A00011CAA34D00501822D01D0E4
:100A200002D000012ED06A076A51040809E06A5119
:100A3000060806E06A51090803E06A510C0803E160
:100A400062811C9E08D06A51020803E11C8E6291EB
:100A500002D01C9E62916ABF03D06A51000802E373
:100A60000C0E6A6F1C9A67C541F666C542F668C5EA
:100A700043F669C544F66AC545F66BC546F60001FE
:100A800075DC1CAA29D0050182510208D8B402D015
:100A9000000122D0690762A105D0695302E11E0E50
:100AA000696F0BD01CAE05D0695302E11C0E696F53
:100AB00004D0695302E11F0E696F1C9A67C541F6A5
:100AC00066C542F668C543F669C544F66AC545F68B
:100AD0006BC546F600014ADC1CAA0FD00501825105
:100AE0000308D8B402D0000108D06B076B510A0884
:100AF00002E13C0E6B6F1C9A00011CAA1BD0050181
:100B000082510408D8B402D0000114D06807685399
:100B100002E1070E686F1C9A67C541F666C542F68A
:100B200068C543F669C544F66AC545F66BC546F621
:100B300000011CDC1CAA0DD005017F2D01D002D0C4
:100B4000000107D0670767AF02D0170E676F1C9AC6
:100B500000011CAA0ED005017F510208D8B402D0B2
:100B6000000107D0660766AF02D03B0E666F1C9A85
:100B700000011CAA0DD00501842D01D002D0000176
:100B800007D0852B8551030802E2010E856F1C9A60
:100B90000001ECEF05F005016E2BD8B46F2B1CA201
:100BA00003D0722BD8B4732B7251DC0803E173515C
:100BB000050800E17251AC0808E173510D0805E128
:100BC000742BD8B4752B736B726B6E511E0807E1D2
:100BD0006F5305E100016BD405016F6B6E6BF294EE
:100BE00000012AEF00F005017C6B7B6B7F6B7E6B55
:100BF000826B816B856B846B836B886B876B8C6B73
:100C00008B6B8A6B896B8E6B8D6B906B8F6B646B50
:100C1000776B766B796B786B1C921C961C981C9A80
:100C20001C9C1C9E62910001FFEF1CF00501A66B4D
:100C3000A56BA46BA26BA36BA1C5A8F5A0C5A7F576
:100C4000A15126080BE2FF0A03E1A0510F0806E2BA
:100C5000A62B100EA05F270EA15BF2D7A1510208B0
:100C60000BE2FF0A03E1A051E70806E2A52BE80E1C
:100C7000A05F030EA15BF2D7A15303E1A05163086B
:100C800006E2A42B640EA05F000EA15BF5D7A15372
:100C900003E1A051090806E2A22B0A0EA05F000E94
:100CA000A15BF5D7A15303E1A051000806E2A32BF5
:100CB000010EA05F000EA15BF5D7300EA627A52779
:100CC000A427A227A327060E9E25E96E000E9F21CA
:100CD000EA6EA3C5EFFF050E9E25E96E000E9F216B
:100CE000EA6EA2C5EFFF040E9E25E96E000E9F215D
:100CF000EA6EA4C5EFFF030E9E25E96E000E9F214C
:100D0000EA6EA5C5EFFF020E9E25E96E000E9F213B
:100D1000EA6EA6C5EFFF0001000C016A026A006AD4
:100D2000036A05019F5102E19E5118E0100EA06F69
:100D3000D8909C379D37003603369F51035C02E103
:100D40009E51005C07E39E51005ED8A003069F51B0
:100D5000035ED88001360236A02FEAD70001000CCE
:100D6000F2CF9CF5F29E300EA96EA69CA69EA680A0
:100D7000A85005019CBFF28E976B966B956B946F94
:100D8000F2CF9CF5F29E310EA96EA69CA69EA6807F
:100D9000A8509CBFF28EA06B9F6B9E6B9D6F9FC5F2
:100DA00003F09EC502F09DC501F0006A0050941347
:100DB000015095130250961303509713F2CF9CF5F0
:100DC000F29E320EA96EA69CA69EA680A8509CBF3D
:100DD000F28EA06B9F6B9E6B9D6F9EC503F09DC5B1
:100DE00002F0006A016A00509413015095130250FA
:100DF000961303509713F2CF9CF5F29E330EA96E13
:100E0000A69CA69EA680A8509CBFF28EA06B9F6B4E
:100E10009E6B9D6F9DC503F0006A016A026A0050D7
:100E20009413015095130250961303509713943D59
:100E300021D0953D1FD0963D1DD0973D1BD0976B7F
:100E4000966B956B946B97C58CF596C58BF595C590
:100E50008AF594C589F58AC59DF589C59CF5050E69
:100E60009F6F2E0E9E6F8AC5A1F589C5A0F5000162
:100E7000DDDE050197C58CF596C58BF595C58AF520
:100E800094C589F5F2CF9CF5F29E340EA96EA69C0E
:100E9000A69EA680A8509CBFF28E936B926FF2CF55
:100EA0009CF5F29E350EA96EA69CA69EA680A85023
:100EB0009CBFF28E9E6B9D6F9DC503F0000E92133A
:100EC00003509313923D22D0933D20D0936B926BAD
:100ED00093C588F592C587F588C59DF587C59CF5AE
:100EE0009F6B0A0E9E6F000118DF0501300E002473
:100EF000376F88C59DF587C59CF59F6B0A0E9E6F61
:100F000000010BDF300E05010124366F93C588F513
:100F100092C587F5000101EF1DF0050EEA6E9C0EEB
:100F2000E96EEF500DE0060E016E006A002EFED74E
:100F3000012EFBD77B0E006E002EFED7EF2EF3D7CF
:100F4000E0EF07F006011C6B938000009382000025
:100F50008A90939000008A929392166AF2BE168E3F
:100F6000F29E17C047F6000179EC01F016BEF28E32
:100F7000166AF2BE168EF29E1CC647F679EC01F098
:100F800016BEF28E166AF2BE168EF29E1BC647F68B
:100F900079EC01F016BEF28E93900000938281A24C
:100FA000FED7000000D0000093800000000C1DC49C
:100FB00018F01EC417F00A0E05019C6F0001ADD792
:100FC000AE0E06011B6F0001BDDFD50E06011B6FC3
:100FD0000001B8DF800E06011B6F0001B3DFA80E11
:100FE00006011B6F0001AEDF3F0E06011B6F000103
:100FF000A9DFD30E06011B6F0001A4DF06011B6BE6
:101000000001A0DF400E06011B6F00019BDF8D0E6B
:1010100006011B6F000196DF04011D2D06D0100E86
:1010200006011B6F00018EDF05D0140E06011B6F39
:10103000000188DF200E06011B6F000183DF06011F
:101040001B6B00017FDFA10E06011B6F00017ADF21
:10105000C80E06011B6F000175DFD90E06011B6F5C
:10106000000170DF04011D2D06D0220E06011B6F4A
:10107000000168DF05D0F10E06011B6F000162DF81
:10108000DB0E06011B6F00015DDF400E06011B6FCA
:10109000000158DFA40E06011B6F000153DFA60EEE
:1010A00006011B6F00014EDF2E0E06011B6F0001B3
:1010B00049DFAF0E06011B6F000144DF196A1A6A8F
:1010C000010E1B6E24EF09F006010B6B0A6B0B512E
:1010D00003080BE31D0E0A25E96E000E0B21EA6ED4
:1010E000EF6A0A2BD8B40B2BF2D70001000C1CC6F8
:1010F00001F01BC600F00066012A0900F5CFEEFFE3
:10110000002EFBD7012EF9D7F86AD0EF08F00601C0
:101110000B6B0A6B210E1B6F000114DF06011B6BAA
:10112000000110DF7F0E06011B6F00010BDF220E96
:1011300006011B6F000106DF06011B6B000102DFC9
:10114000070E06011B6F0001FDDE06010D6B010E8F
:101150000C6F0D53D8A475D00C51080872E31B6BAB
:101160000001F0DE100E06011B6F0001EBDE010E28
:1011700006010C5D0F6F000E0D59106FF80E0F2752
:101180007F0E1023F86A10C6F7FF0FC6F6FF060E93
:10119000EA6E110EE96E1C6B010E1B6F0001A7D7E2
:1011A00011C61BF6CFDE93800000938200008A9068
:1011B000939000008A929392166AF2BE168EF29E67
:1011C000780E0601476F000179EC01F016BEF28E31
:1011D000166AF2BE168EF29E400E0601476F00019F
:1011E00079EC01F016BEF28E010E06010E6F0E5163
:1011F000800819E31D0E0A25E96E000E0B21EA6E28
:10120000EFCF0FF6166AF2BE168EF29E0FC647F6A5
:10121000000179EC01F016BEF28E06010A2BD8B45B
:101220000B2B0E2BE4D793900000938281A2FED764
:10123000000000D00000938000000C2BD8B40D2BD0
:1012400088D70001000CB3D63FDF61DF040E050133
:101250009C6F166AF2BE168EF29EFA0E0601476F5A
:101260000001A2EC01F016BEF28E05019C2FF1D711
:10127000000103EF1DF006010F517F0803E3105139
:101280003F0801E204D00FC619F010C61AF00001A1
:10129000D9EF0BF006010F5302E1010E0F6F0FC6DD
:1012A0001BF00001DCEF0BF006013B517F0803E36C
:1012B0003C513F0801E26ED03D5336E03C31006EB8
:1012C000003200321F0E001600503F6B3E6F3E355D
:1012D000026E3F35036E023603360236033602369F
:1012E0000336023603360236033602360336800EE4
:1012F000021602503B253E6F000E03203F6F1D0E6D
:101300003E25E96E000E3F21EA6E3C51070B016E4F
:10131000010E006E015204E0D8900036012EFCD779
:101320000050EF10EF6E36D03C31006E00320032CC
:101330001F0E001600503F6B3E6F3E35026E3F356C
:10134000036E0236033602360336023603360236A1
:1013500003360236033602360336800E021602507A
:101360003B253E6F000E03203F6F1D0E3E25E96EAC
:10137000000E3F21EA6E3C51070B016E010E006E1C
:10138000015204E0D8900036012EFCD70050FF0A2D
:10139000EF14EF6E0001000C06012D9126512A5D1D
:1013A0003B6F27512B593C6F036E3B513CAF08D02C
:1013B000000ED8803B55006E000E3C55036E005069
:1013C0003B6F03C03CF62451285D3D6F25512959E0
:1013D0003E6F036E3D513EAF08D0000ED8803D55A4
:1013E000006E000E3E55036E0050016E03AE03D03A
:1013F0003CAF0AD002D03CBF08D003503C5D05E3AF
:1014000003E13B51015C01E22D812DA118D025C6DD
:1014100034F624C633F627C625F626C624F634C687
:1014200027F633C626F629C636F628C635F62BC665
:1014300029F62AC628F636C62BF635C62AF629AF6F
:1014400003D025AF0AD002D025BF1FD02951255D7A
:101450001CE303E12451285D18E225C638F624C6B2
:1014600037F629C625F628C624F638C629F637C623
:1014700028F627C63AF626C639F62BC627F62AC618
:1014800026F63AC62BF639C62AF62451285D006E98
:101490002551295900C02FF626512A5D3B6F27514F
:1014A0002B593C6F036E3B513CAF08D0000ED880E7
:1014B0003B55006E000E3C55036E0050306FD890C7
:1014C0002F31036A316F03C032F627AF03D02BAF41
:1014D0000AD002D02BBF0AD027512B5D07E303E1CE
:1014E0002A51265D03E2010E2E6F02D0FF0E2E6FF1
:1014F00025AF03D029AF0AD002D029BF48D025514B
:10150000295D45E303E12451285D41E32DA115D078
:101510002C530AE026C63BF624C63CF6010E3D6F6E
:101520000001C2DE08D0060126C63BF624C63CF602
:101530003D6B0001B9DE14D006012C530AE024C62D
:101540003BF626C63CF6010E3D6F0001ADDE08D02D
:10155000060124C63BF626C63CF63D6B0001A4DE20
:1015600006013051315F000E325B32BF01D00BD02B
:10157000036A2E51E8BE03062627035027232F5166
:101580003127000E3223242BD8B4252BB1D70001EC
:10159000000C060121512025FF0F236F256B1FC66C
:1015A00024F6276B20C626F6296B1FC628F62B6B60
:1015B0002A6F22C62CF60001EFDE000C036A06013A
:1015C00018C61DF603C01EF61A5118251EBF04D0FA
:1015D0001E5311E11D5D0FE21DC61FF619C620F650
:1015E0001BC621F61CC622F60001D3DF06011D2B07
:1015F000D8B41E2BE9D70001000C060110512008B9
:1016000005E1195203E11CA001D0CBD0105107080D
:1016100004E11A6A1AC019F0C4D0105108080AE18E
:101620001B50060DF350195C05E31B50060DF350DB
:10163000195EB7D010510D0802E1196AB2D01051ED
:101640000A080CE11B50080DF3501A261B50070D19
:10165000F3501A24400801E21A6AA3D010511F085F
:1016600003E210517E0802E23F0E106F126B12511E
:10167000040861E31051520811E3200E105D050DBE
:10168000F3501225036AF2CF15F6F29E00014BECDF
:1016900000F0060115BFF28E146F10D0530E105DCE
:1016A000050DF3501225036AF2CF15F6F29E0001E4
:1016B000D8EC00F0060115BFF28E146F136B1351B6
:1016C000060837E314A102D0118101D011911B2C1F
:1016D00012D012511924156F13511A24166F000ECF
:1016E00011B1010E15C63BF616C63CF63D6F000162
:1016F000DBDD19D0060112511B02F3501924156FBE
:1017000013511B02F3501A24166F000E11B1010E73
:1017100015C618F616C619F61BC01AF61BC01BF61E
:101720001C6F00014BDF06011351132BD8901433AB
:10173000C6D7122B9CD71B50050DF3501924156FDB
:101740001B50070DF3CF16F615C618F61AC019F67A
:101750001BC01AF616C61BF61C6B00012FDF1B50B0
:10176000060DF35019261B50060DF350800F195C1F
:1017700003E002E3800E196E1CA012D01B50050D71
:10178000F350192480080CE2196A1B50080DF3501D
:101790001A261B50070DF3501A24400801E21A6A5A
:1017A00006010001DCEF0BF00AC60FF60BC610F6BF
:1017B00062D50EC60FF66ED50DC603F006010CC637
:1017C000E9FF0DC6EAFFEF5212E00DC603F00C511F
:1017D0000C2BD8B40D2BE96E03C0EAFFEFCF0FF648
:1017E0000FC610F6000109D70001E6D70601000177
:1017F000000C88C59DF587C59CF505019F6B0A0EF9
:101800009E6F00018DEC06F00501300E0024376F4D
:1018100088C59DF587C59CF59F6B0A0E9E6F0001DC
:101820008DEC06F0300E05010124366F8AC59DF55A
:1018300089C59CF5050E9F6F2E0E9E6F8AC5A1F57A
:1018400089C5A0F5000116EC06F08EC59DF58DC585
:101850009CF505019F6B0A0E9E6F00018DEC06F052
:101860000501300E0024436F8EC59DF58DC59CF596
:101870009F6B0A0E9E6F00018DEC06F0300E050185
:101880000124426F050E9F6F3A0E9E6F90C5A1F521
:101890008FC5A0F5000116EC06F0020E06010A6FD6
:1018A0001B0E0B6F050E0D6F2E0E0C6F020E0E6FC2
:1018B00000017ADF020E06010A6F2F0E0B6F050E74
:1018C0000D6F3A0E0C6F020E0E6F00016DDF05EF0B
:1018D0001DF0080E06010B6F00C00CF6938000008F
:1018E000938281A2FED781B0D88081A0D8900136A2
:1018F000000093928A920B2FF1D7938000008A9078
:101900000C51D8A493900000938281A2FED70000CE
:101910008A92939200008A9093900001000C050136
:101920006539006E0F0E001600500A0DF3CF0AF64F
:10193000050165510F0B06010A250501656F663922
:10194000006E0F0E001600500A0DF3CF0AF60501C7
:1019500066510F0B06010A250501666F6739006E97
:101960000F0E001600500A0DF3CF0AF6050167515D
:101970000F0B06010A250501676F6939006E0F0E0E
:10198000001600500A0DF3CF0AF6050169510F0B3E
:1019900006010A250501696F6A39006E0F0E0016EF
:1019A00000500A0DF3CF0AF605016A510F0B06012C
:1019B0000A2505016A6F6B39006E0F0E0016005084
:1019C0000A0DF3CF0AF605016B510F0B06010A252C
:1019D00005016B6F166AF2BE168EF29E65C548F65B
:1019E0000A0E0601496F000153EC01F016BEF28E9B
:1019F000300E00240501266F166AF2BE168EF29E86
:101A000065C548F60A0E0601496F000153EC01F066
:101A100016BEF28E300E01240501256F166AF2BE45
:101A2000168EF29E66C548F60A0E0601496F000141
:101A300053EC01F016BEF28E300E00240501236F28
:101A4000166AF2BE168EF29E66C548F60A0E0601AA
:101A5000496F000153EC01F016BEF28E300E0124E6
:101A60000501226F166AF2BE168EF29E67C548F611
:101A70000A0E0601496F000153EC01F016BEF28E0A
:101A8000300E00240501206F166AF2BE168EF29EFB
:101A900067C548F60A0E0601496F000153EC01F0D4
:101AA00016BEF28E300E012405011F6F166AF2BEBB
:101AB000168EF29E6BC548F60A0E0601496F0001AC
:101AC00053EC01F016BEF28E300E002405012C6F8F
:101AD000166AF2BE168EF29E6BC548F60A0E060115
:101AE000496F000153EC01F016BEF28E300E012456
:101AF00005012B6F166AF2BE168EF29E6AC548F675
:101B00000A0E0601496F000153EC01F016BEF28E79
:101B1000300E00240501296F166AF2BE168EF29E61
:101B20006AC548F60A0E0601496F000153EC01F040
:101B300016BEF28E300E01240501286F166AF2BE21
:101B4000168EF29E69C548F60A0E0601496F00011D
:101B500053EC01F016BEF28E300E00240501266F04
:101B6000166AF2BE168EF29E69C548F60A0E060186
:101B7000496F000153EC01F016BEF28E300E0124C5
:101B80000501256F000164EC08F00A0E06010A6FDA
:101B90000F0E0B6F050E0D6F250E0C6F010E0E6FE5
:101BA000000102DE400E06010A6F0F0E0B6F050EDC
:101BB0000D6F1F0E0C6F010E0E6F0001F5DDCAEFE9
:101BC0000EF005016851010A00010BE0030A17E05D
:101BD000010A23E0070A2FE0010A3BE0030A47E07D
:101BE00054D0640E06010A6F0F0E0B6F050E0D6FB9
:101BF0005E0E0C6F010E0E6F0001D6DD54D0640E28
:101C000006010A6F0F0E0B6F050E0D6F460E0C6F5F
:101C1000010E0E6F0001C8DD46D0640E06010A6F8A
:101C20000F0E0B6F050E0D6F4A0E0C6F010E0E6F2F
:101C30000001BADD38D0640E06010A6F0F0E0B6F7B
:101C4000050E0D6F4E0E0C6F010E0E6F0001ACDD18
:101C50002AD0640E06010A6F0F0E0B6F050E0D6F72
:101C6000520E0C6F010E0E6F00019EDD1CD0640E33
:101C700006010A6F0F0E0B6F050E0D6F560E0C6FDF
:101C8000010E0E6F000190DD0ED0640E06010A6F8A
:101C90000F0E0B6F050E0D6F5A0E0C6F010E0E6FAF
:101CA000000182DD00D0CBEF0EF093800000938224
:101CB00000008A90939000008A929392166AF2BE76
:101CC000168EF29ED00E0601476F000179EC01F0EE
:101CD00016BEF28E166AF2BE168EF29E0601476B93
:101CE000000179EC01F016BEF28E93800000938221
:101CF000000081A2FED78A90939000008A9293926E
:101D0000166AF2BE168EF29ED10E0601476F0001D2
:101D100079EC01F016BEF28E010E006EDADD01C024
:101D200065F50501020E006E0001D3DD01C066F508
:101D30000501030E006E0001CCDD01C067F5050151
:101D4000040E006E0001C5DD01C068F50501050E39
:101D5000006E0001BEDD01C069F50501060E006ED2
:101D60000001B7DD01C06AF50501070E006E000134
:101D7000B0DD01C06BF5050193900000938281A254
:101D8000FED7000000D0000093800000000164EC4A
:101D900008F0C5D516D7020E06010A6F1B0E0B6F91
:101DA000050E0D6F2E0E0C6F020E0E6F0001FCDC87
:101DB000020E06010A6F2F0E0B6F050E0D6F3A0E05
:101DC0000C6F020E0E6F0001EFDC87EC08F0166A54
:101DD000F2BE168EF29E140E0601476F0001A2ECB1
:101DE00001F016BEF28E09EF11F0060111510F2518
:101DF000FF0F136F256B0FC624F6276B10C626F650
:101E0000296B286F2B6B10C62AF612C62CF6000120
:101E1000CCEC09F0000C0AC60FF60BC610F60CC687
:101E200011F6010E0601126F0001DFDF06010D51F0
:101E30000B25FF0F0E6F0AC60FF6106F0CC611F6BA
:101E4000010E126F0001D1DF0AC61FF60BC620F685
:101E50000DC621F6010E0601226F0001C9EC0AF041
:101E600006010C510A25FF0F0E6F1F6F0BC620F6DF
:101E70000DC621F6010E226F0001C9EC0AF0000C1C
:101E8000166AF2BE168EF29E65C548F60A0E060167
:101E9000496F000153EC01F016BEF28E300E0024A3
:101EA0000501266F166AF2BE168EF29E65C548F6CB
:101EB0000A0E0601496F000153EC01F016BEF28EC6
:101EC000300E01240501256F166AF2BE168EF29EB1
:101ED00066C548F60A0E0601496F000153EC01F091
:101EE00016BEF28E300E00240501236F166AF2BE74
:101EF000168EF29E66C548F60A0E0601496F00016D
:101F000053EC01F016BEF28E300E01240501226F53
:101F1000166AF2BE168EF29E67C548F60A0E0601D4
:101F2000496F000153EC01F016BEF28E300E002412
:101F30000501206F166AF2BE168EF29E67C548F63E
:101F40000A0E0601496F000153EC01F016BEF28E35
:101F5000300E012405011F6F166AF2BE168EF29E26
:101F60006BC548F60A0E0601496F000153EC01F0FB
:101F700016BEF28E300E002405012C6F166AF2BEDA
:101F8000168EF29E6BC548F60A0E0601496F0001D7
:101F900053EC01F016BEF28E300E012405012B6FBA
:101FA000166AF2BE168EF29E6AC548F60A0E060141
:101FB000496F000153EC01F016BEF28E300E002482
:101FC0000501296F166AF2BE168EF29E6AC548F6A2
:101FD0000A0E0601496F000153EC01F016BEF28EA5
:101FE000300E01240501286F166AF2BE168EF29E8D
:101FF00069C548F60A0E0601496F000153EC01F06D
:1020000016BEF28E300E00240501266F166AF2BE4F
:10201000168EF29E69C548F60A0E0601496F000148
:1020200053EC01F016BEF28E300E01240501256F2F
:102030000001000C06010A5307E0A70E1B6F000108
:10204000A2EC07F006D00601A60E1B6F0001A2EC61
:1020500007F0000C520E05019C6F650E9D6F6C0E13
:102060009E6F6F0E9F6F670EA06F690EA16F6F0E50
:10207000A26FA36B440EA46F610EA56F740EA66FC2
:10208000610EA76FA86B540EA96F690EAA6F6D0E33
:10209000AB6F650EAC6F720EAD6FAE6B530EAF6F64
:1020A0006F0EB06F620EB16F720EB26F650EB36FCE
:1020B000B46B480EB56F6F0EB66F720EB76F610ED0
:1020C000B86F730EB96FBA6B4D0EBB6F690EBC6FF4
:1020D0006E0EBD6F750EBE6F740EBF6F6F0EC06F4C
:1020E000730EC16FC26B4D0EC36F650EC46F730E5E
:1020F000C56FC66B440EC76F690EC86F610EC96F9E
:10210000CA6B410ECB6F6E0ECC6F6F0ECD6FCE6B68
:10211000490ECF6F6E0ED06F690ED16F740ED26FF5
:10212000200ED36FD46F740ED56F650ED66F6D0E03
:10213000D76F700ED86FD96B530EDA6F740EDB6FDA
:102140006F0EDC6F700EDD6F200EDE6FDF6F740EB2
:10215000E06F650EE16F6D0EE26F700EE36FE46B82
:10216000520EE56F650EE66F730EE76F650EE86F52
:10217000740EE96F200EEA6F740EEB6F650EEC6F54
:102180006D0EED6F700EEE6FEF6B440EF06F690E1B
:10219000F16F610EF26F200EF36F730EF46F650E28
:1021A000F56F6D0EF66FF76B410EF86F750EF96FE8
:1021B000740EFA6F6F0EFB6F620EFC6F610EFD6F97
:1021C0006E0EFE6FFF6B4D0E0601006F610E016F0C
:1021D000780E026F036F460E046F6F0E056F720E5E
:1021E000066F740E076F650E086F096B05017C5151
:1021F000FB0FD8B0B9EF15F0050F0001EBEF15F0AC
:102200001C8205017251320805E1735303E100019C
:102210004CD50501B9EF15F005017E5346E10001EB
:1022200064EC08F0020E06010A6F040E0B6F050E37
:102230000D6F9C0E0C6F020E0E6F0001D4EC0BF0B4
:1022400006010A6B020E0B6F800E0C6F120E0D6FE3
:102250000001E1DD020E06010A6F190E0B6F050E7B
:102260000D6FA40E0C6F020E0E6F0001D4EC0BF07C
:10227000020E06010A6F2E0E0B6F050E0D6FA90ED2
:102280000C6F020E0E6F0001D4EC0BF087EC08F01F
:10229000166AF2BE168EF29E020E0601476F00010C
:1022A000A2EC01F016BEF28E05017F51010A000179
:1022B00003E0030A2FE05CD0E3DD64EC08F0200EBD
:1022C00006010A6F040E0B6F050E0D6FB50E0C6F35
:1022D000020E0E6F0001D4EC0BF0200E06010A6F07
:1022E000190E0B6F050E0D6F1F0E0C6F020E0E6F89
:1022F0000001D4EC0BF087EC08F0166AF2BE168EE3
:10230000F29E020E0601476F0001A2EC01F016BE1C
:10231000F28E2ED0B5DD64EC08F0140E06010A6FC3
:10232000040E0B6F050E0D6FBB0E0C6F020E0E6FC1
:102330000001D4EC0BF0200E06010A6F190E0B6F92
:10234000050E0D6F1F0E0C6F020E0E6F0001D4EC08
:102350000BF087EC08F0166AF2BE168EF29E020EA3
:102360000601476F0001A2EC01F016BEF28E00D00C
:102370000501B9EF15F00501815346E1000164EC58
:1023800008F0020E06010A6F040E0B6F050E0D6FAA
:102390009C0E0C6F020E0E6F0001D4EC0BF0020EBF
:1023A00006010A6F190E0B6F050E0D6FA40E0C6F50
:1023B000020E0E6F0001D4EC0BF006010A6B170E33
:1023C0000B6F800E0C6F120E0D6F000124DD020EDC
:1023D00006010A6F2E0E0B6F050E0D6FA90E0C6F06
:1023E000020E0E6F0001D4EC0BF087EC08F0166AB9
:1023F000F2BE168EF29E020E0601476F0001A2EC9D
:1024000001F016BEF28E0501010E825DFC0FD8B000
:10241000E0D1040F0001D5EF15F032DD64EC08F0D7
:102420002D0E06010A6F040E0B6F050E0D6FC30E05
:102430000C6F020E0E6F0001D4EC0BF0110E0601B2
:102440000A6F190E0B6F050E0D6F250E0C6F020E25
:102450000E6F0001D4EC0BF087EC08F0166AF2BEA8
:10246000168EF29E020E0601476F0001A2EC01F0EB
:1024700016BEF28E0501ADD103DD64EC08F02D0E21
:1024800006010A6F040E0B6F050E0D6FC70E0C6F61
:10249000020E0E6F0001D4EC0BF0110E06010A6F54
:1024A000190E0B6F050E0D6F250E0C6F020E0E6FC1
:1024B0000001D4EC0BF087EC08F0166AF2BE168E21
:1024C000F29E020E0601476F0001A2EC01F016BE5B
:1024D000F28E05017ED1D4DC64EC08F02D0E0601ED
:1024E0000A6F040E0B6F050E0D6FCB0E0C6F020EF4
:1024F0000E6F0001D4EC0BF0110E06010A6F190EDD
:102500000B6F050E0D6F250E0C6F020E0E6F000186
:10251000D4EC0BF087EC08F0166AF2BE168EF29E31
:10252000020E0601476F0001A2EC01F016BEF28E0A
:1025300005014FD1010E0501685DF90FD8B047D1F3
:10254000070F0001BCEF15F064EC08F0160E060151
:102550000A6F040E0B6F050E0D6FF00E0C6F020E5E
:102560000E6F0001D4EC0BF02D0E06010A6F190E50
:102570000B6F050E0D6F5E0E0C6F020E0E6F0001DD
:10258000D4EC0BF087EC08F0166AF2BE168EF29EC1
:10259000020E0601476F0001A2EC01F016BEF28E9A
:1025A000050115D164EC08F0160E06010A6F040E41
:1025B0000B6F050E0D6FF00E0C6F020E0E6F00010B
:1025C000D4EC0BF02D0E06010A6F190E0B6F050EE1
:1025D0000D6F460E0C6F020E0E6F0001D4EC0BF067
:1025E00087EC08F0166AF2BE168EF29E020E060105
:1025F000476F0001A2EC01F016BEF28E0501E7D094
:1026000064EC08F0160E06010A6F040E0B6F050E3F
:102610000D6FF00E0C6F020E0E6F0001D4EC0BF07C
:102620002D0E06010A6F190E0B6F050E0D6F4A0E67
:102630000C6F020E0E6F0001D4EC0BF087EC08F06B
:10264000166AF2BE168EF29E020E0601476F000158
:10265000A2EC01F016BEF28E0501B9D064EC08F0D0
:10266000160E06010A6F040E0B6F050E0D6FF00EAD
:102670000C6F020E0E6F0001D4EC0BF02D0E060154
:102680000A6F190E0B6F050E0D6F4E0E0C6F020EBA
:102690000E6F0001D4EC0BF087EC08F0166AF2BE66
:1026A000168EF29E020E0601476F0001A2EC01F0A9
:1026B00016BEF28E05018BD064EC08F0160E0601F2
:1026C0000A6F040E0B6F050E0D6FF00E0C6F020EED
:1026D0000E6F0001D4EC0BF02D0E06010A6F190EDF
:1026E0000B6F050E0D6F520E0C6F020E0E6F000178
:1026F000D4EC0BF087EC08F0166AF2BE168EF29E50
:10270000020E0601476F0001A2EC01F016BEF28E28
:1027100005015DD064EC08F0160E06010A6F040E88
:102720000B6F050E0D6FF00E0C6F020E0E6F000199
:10273000D4EC0BF02D0E06010A6F190E0B6F050E6F
:102740000D6F560E0C6F020E0E6F0001D4EC0BF0E5
:1027500087EC08F0166AF2BE168EF29E020E060193
:10276000476F0001A2EC01F016BEF28E05012FD0DA
:1027700064EC08F0160E06010A6F040E0B6F050ECE
:102780000D6FF00E0C6F020E0E6F0001D4EC0BF00B
:102790002D0E06010A6F190E0B6F050E0D6F5A0EE6
:1027A0000C6F020E0E6F0001D4EC0BF087EC08F0FA
:1027B000166AF2BE168EF29E020E0601476F0001E7
:1027C000A2EC01F016BEF28E050101D00501000158
:1027D0000501CFD10501845347E1000164EC08F005
:1027E000020E06010A6F040E0B6F050E0D6F9C0E94
:1027F0000C6F020E0E6F0001D4EC0BF0020E0601FE
:102800000A6F190E0B6F050E0D6FA40E0C6F020EE2
:102810000E6F0001D4EC0BF0020E06010A6F2E0EB3
:102820000B6F050E0D6FA90E0C6F020E0E6F0001DF
:10283000D4EC0BF006010A6B2C0E0B6F800E0C6FA4
:10284000120E0D6F00010BEC0FF087EC08F0166A0A
:10285000F2BE168EF29E020E0601476F0001A2EC38
:1028600001F016BEF28E05018551010A000106E055
:10287000030A4AE0010AD8B48DD0D2D064EC08F043
:10288000020E06010A6F040E0B6F050E0D6FCF0EC0
:102890000C6F020E0E6F0001D4EC0BF006010A6BF8
:1028A000020E0B6F800E0C6F120E0D6F00010BEC01
:1028B0000FF0020E06010A6F190E0B6F050E0D6F59
:1028C000DA0E0C6F020E0E6F0001D4EC0BF0020E4C
:1028D00006010A6F2E0E0B6F050E0D6FE50E0C6FC5
:1028E000020E0E6F0001D4EC0BF087EC08F0166AB4
:1028F000F2BE168EF29E020E0601476F0001A2EC98
:1029000001F016BEF28E8CD064EC08F0020E0601C7
:102910000A6F040E0B6F050E0D6FCF0E0C6F020EBB
:102920000E6F0001D4EC0BF0020E06010A6F190EB7
:102930000B6F050E0D6FDA0E0C6F020E0E6F00019D
:10294000D4EC0BF006010A6B170E0B6F800E0C6FA8
:10295000120E0D6F00010BEC0FF0020E06010A6F54
:102960002E0E0B6F050E0D6FE50E0C6F020E0E6F27
:102970000001D4EC0BF087EC08F0166AF2BE168E5C
:10298000F29E020E0601476F0001A2EC01F016BE96
:10299000F28E46D064EC08F0020E06010A6F040EB7
:1029A0000B6F050E0D6FCF0E0C6F020E0E6F000138
:1029B000D4EC0BF0020E06010A6F190E0B6F050E18
:1029C0000D6FDA0E0C6F020E0E6F0001D4EC0BF0DF
:1029D000020E06010A6F2E0E0B6F050E0D6FE50E2F
:1029E0000C6F020E0E6F0001D4EC0BF006010A6BA7
:1029F0002C0E0B6F800E0C6F120E0D6F00010BEC86
:102A00000FF087EC08F0166AF2BE168EF29E020EE8
:102A10000601476F0001A2EC01F016BEF28E00D055
:102A20000501A7D00501765349E1775347E100013D
:102A300064EC08F0020E06010A6F040E0B6F050E1F
:102A40000D6FA40E0C6F020E0E6F0001D4EC0BF094
:102A5000020E06010A6F190E0B6F050E0D6FA90EFF
:102A60000C6F020E0E6F0001D4EC0BF0020E06018B
:102A70000A6F2E0E0B6F050E0D6FAF0E0C6F020E50
:102A80000E6F0001D4EC0BF006010A6B2C0E0B6FDD
:102A9000800E0C6F120E0D6F00010BEC0FF087EC27
:102AA00008F0166AF2BE168EF29E020E0601476FFD
:102AB0000001A2EC01F016BEF28E05017851006E05
:102AC0007951036E035005E1010E005C000102E044
:102AD00005014DD064EC08F0020E06010A6F040EE9
:102AE0000B6F050E0D6FF80E0C6F020E0E6F0001CE
:102AF000D4EC0BF0020E06010A6F190E0B6F060ED6
:102B00000D6F0C6B020E0E6F0001D4EC0BF087EC16
:102B100008F0010E06010A6F00011AEC10F0020E17
:102B200006010A6F166AF2BE168EF29E960E476F67
:102B30000001A2EC01F016BEF28E06010A2FF2D7B8
:102B40000A6B00011AEC10F0020E06010A6F166AF9
:102B5000F2BE168EF29E960E476F0001A2EC01F0B7
:102B600016BEF28E06010A2FF2D7050100D001D061
:102B70000501000107EF1DF0F2CF0DF0F29EE824F1
:102B8000F76AF7369D0FF66E2B0EF7220A00F55006
:102B9000FA6E0800F5500DBEF28EF96E4825A42598
:102BA00000265C26B82614277027F2CF0DF0F29E7F
:102BB000E824F76AF736CF0FF66E2B0EF7220A00DD
:102BC000F550FA6E0800F5500DBEF28EF96E1A241B
:102BD0007824D6243425F2CF0DF0F29EE824F76A4B
:102BE000F736FB0FF66E2B0EF7220A00F550FA6E41
:102BF0000800F5500DBEF28EF96E002218227623E1
:102C0000D427242A300EA96E94C5A8FFA69CA69EA0
:102C1000A684F250006EF29E0F01550EA76EAA0E0A
:102C2000A76EA682A6B2FED7A6940050F21296C551
:102C300001F097C502F0036A95C59DF5310EA96EA6
:102C400095C5A8FFA69CA69EA684F2CF00F0F29E92
:102C5000550EA76EAA0EA76EA682A6B2FED7A694A0
:102C60000050F21297C501F0026A036A96C59DF5FD
:102C7000320EA96E96C5A8FFA69CA69EA684F2CF8A
:102C800000F0F29E550EA76EAA0EA76EA682A6B2FF
:102C9000FED7A6940050F212016A026A036A97C531
:102CA0009DF5330EA96E97C5A8FFA69CA69EA68487
:102CB000F2CF00F0F29E550EA76EAA0EA76EA68266
:102CC000A6B2FED7A6940050F212340EA96E92C599
:102CD000A8FFA69CA69EA684F2CF00F0F29E550EF9
:102CE000A76EAA0EA76EA682A6B2FED7A694005023
:102CF000F21205019351036A9C6F350EA96E9CC5B3
:102D0000A8FFA69CA69EA684F250006EF29E0F011C
:102D1000550EA76EAA0EA76EA682A6B2FED7A694DF
:102D20000050F2120001D1EF1DF0F86AD09E078E1C
:102D3000EA6AE96AB886080EAF6E020EB06EA60E99
:102D4000AC6E900EAB6E1C80020E04011D6F780EEF
:102D50001E6F1C921C940501629362956297796BB9
:102D6000786BC150C00B0F09C16E070EB46E1D6A9F
:102D70001E6A1F6A206A216A226A236A246A256AF7
:102D8000266A276A286A296A2A6A2B6A2C6A2D6AA7
:102D90002E6A2F6A306A316A326A336A346A356A57
:102DA000366A376A386A396A3A6A3B6A3C6A3D6A07
:102DB0003E6A3F6A406A416A426A436A446A456AB7
:102DC000466A476A486A496A4A6A4B6A4C6A4D6A67
:102DD0004E6A4F6A506A516A526A536A546A556A17
:102DE000566A576A586A596A5A6A5B6A800E5C6EFC
:102DF0005D6E5E6E5F6A0001606B616B626B636B40
:102E0000646B656B666B676B686B696B6A6B6B6B2E
:102E10006C6B6D6B6E6F6F6FC00E706F716F726BDE
:102E2000736B746B756B766B776B786B796B7A6B96
:102E30007B6B7C6B7D6B7E6B7F6B806B816B826B46
:102E4000836B846B856B866B876B886B896B8A6BF6
:102E50008B6B8C6B8D6B8E6B8F6B906B916B926BA6
:102E6000936B946B956B966B976B986B996B9A6B56
:102E70009B6B9C6B9D6B9E6B9F6BA06BA16BA26B06
:102E8000A36BA46BA56BA66BA76BA86BA96BAA6BB6
:102E9000AB6BAC6BAD6BAE6BAF6BB06B800EB16FF1
:102EA000C00EB26FE00EB36FF00EB46FF80EB56FD8
:102EB000FC0EB66FF80EB76FE00EB86FB96BBA6B59
:102EC000BB6BBC6BBD6BBE6BBF6BC06BC16BC26BB6
:102ED000C36BC46BC56BC66BC76BC86BC96B800E0D
:102EE000CA6FCB6FCC6FCD6FCE6FCF6BD06FD16F02
:102EF000D26BD36BD46BD56BD66FD76FD86FD96FBE
:102F0000DA6FDB6BFF0EDC6FDD6BDE6BDF6BE06BB4
:102F1000E16BE26BE36BE46BE56BE66BE76BE86B35
:102F2000E96BEA6BEB6BEC6BED6BEE6BEF6BF06BE5
:102F3000F16BF26BF36BF46BF56BF66BF76BF86B95
:102F4000F96BFA6BFB6BFC6BFD6BFE6BFF6B0101AE
:102F5000006B016B026B036B046B056B066B076BFD
:102F6000086B096B0A6B0B6B0C6B0D6B0E6B0F6BAD
:102F7000106B116B126B136B146B156B166B176B5D
:102F8000186B196B1A6B1B6B1C6B1D6B1E6B1F6B0D
:102F9000206B216B226B236B246B256B266B276BBD
:102FA000286B296B2A6B2B6B2C6B2D6B2E6B2F6B6D
:102FB000306B316B326B336B346B356B366B376B1D
:102FC000386B396B3A6B3B6B3C6B3D6B3E6B3F6BCD
:102FD000406B416B426B436B446B456B466B476B7D
:102FE000486B496B4A6B4B6B4C6B4D6B4E6B4F6B2D
:102FF000506B516B526B536B546B556B566B576BDD
:10300000586B596B5A6B5B6B5C6B5D6B5E6B5F6B8C
:10301000606B616B626B636B646B656B666B676B3C
:10302000686B696B6A6B6B6B6C6B6D6B6E6B6F6BEC
:10303000706B716B726B736B746B756B766B776B9C
:10304000786B796B7A6B7B6B7C6B7D6B7E6B7F6B4C
:10305000806B816B826B836B846B856B866B876BFC
:10306000886B896B8A6B8B6B8C6B8D6B8E6B8F6BAC
:10307000906B916B926B936B946B956B966B976B5C
:10308000986B996B9A6B9B6B9C6B9D6B9E6B9F6B0C
:10309000A06BA16BA26BA36BA46BA56BA66BA76BBC
:1030A000A86BA96BAA6BAB6BAC6BAD6BAE6BAF6B6C
:1030B000B06BB16BB26BB36BB46BB56BB66BB76B1C
:1030C000B86BB96BBA6BBB6BBC6BBD6BBE6BBF6BCC
:1030D000C06BC16BC26BC36BC46BC56BC66BC76B7C
:1030E000C86BC96BCA6BCB6BCC6BCD6BCE6BCF6B2C
:1030F000D06BD16BD26BD36BD46BD56BD66BD76BDC
:10310000D86BD96BDA6BDB6BDC6BDD6BDE6BDF6B8B
:10311000E06BE16BE26BE36BE46BE56BE66BE76B3B
:10312000E86BE96BEA6BEB6BEC6BED6BEE6BEF6BEB
:10313000F06BF16BF26BF36BF46BF56BF66BF76B9B
:10314000F86BF96BFA6BFB6BFC6BFD6BFE6BFF6B4B
:103150000201006B016B026B036B046B056B066B6A
:10316000076B086B096B0A6B0B6B0C6B0D6B0E6BB3
:103170000F6B106B116B126B136B146B156B166B63
:10318000176B186B196B1A6B1B6B1C6B1D6B1E6B13
:103190001F6B206B216B226B236B246B256B266BC3
:1031A000276B286B296B2A6B2B6B2C6B2D6B2E6B73
:1031B0002F6B306B316B326B336B346B356B366B23
:1031C000376B386B396B3A6B3B6B3C6B3D6B3E6BD3
:1031D0003F6B406B416B426B436B446B456B466B83
:1031E000476B486B496B4A6B4B6B4C6B4D6B4E6B33
:1031F0004F6B506B516B526B536B546B556B566BE3
:10320000576B586B596B5A6B5B6B5C6B5D6B5E6B92
:103210005F6B606B616B626B636B646B656B666B42
:10322000676B686B696B6A6B6B6B6C6B6D6B6E6BF2
:103230006F6B706B716B726B736B746B756B766BA2
:10324000776B786B796B7A6B7B6B7C6B7D6B7E6B52
:103250007F6B806B816B826B836B846B856B866B02
:10326000876B886B896B8A6B8B6B8C6B8D6B8E6BB2
:103270008F6B906B916B926B936B946B956B966B62
:10328000976B986B996B9A6B9B6B9C6B9D6B9E6B12
:103290009F6BA06BA16BA26BA36BA46BA56BA66BC2
:1032A000A76BA86BA96BAA6BAB6BAC6BAD6BAE6B72
:1032B000AF6BB06BB16BB26BB36BB46BB56BB66B22
:1032C000B76BB86BB96BBA6BBB6BBC6BBD6BBE6BD2
:1032D000BF6BC06BC16BC26BC36BC46BC56BC66B82
:1032E000C76BC86BC96BCA6BCB6BCC6BCD6BCE6B32
:1032F000CF6BD06BD16BD26BD36BD46BD56BD66BE2
:10330000D76BD86BD96BDA6BDB6BDC6BDD6BDE6B91
:10331000DF6BE06BE16BE26BE36BE46BE56BE66B41
:10332000E76BE86BE96BEA6BEB6BEC6BED6BEE6BF1
:10333000EF6BF06BF16BF26BF36BF46BF56BF66BA1
:10334000F76BF86BF96BFA6BFB6BFC6BFD6BFE6B51
:10335000FF6B0301006B016B026B036B046B056B6E
:10336000066B076B086B096B0A6B0B6B0C6B0D6BB9
:103370000E6B0F6B106B116B126B136B146B156B69
:10338000166B176B186B196B1A6B1B6B1C6B1D6B19
:103390001E6B1F6B206B216B226B236B246B256BC9
:1033A000266B276B286B296B2A6B2B6B2C6B2D6B79
:1033B0002E6B2F6B306B316B326B336B346B356B29
:1033C000366B376B386B396B3A6B3B6B3C6B3D6BD9
:1033D0003E6B3F6B406B416B426B436B446B456B89
:1033E000466B476B486B496B4A6B4B6B4C6B4D6B39
:1033F0004E6B4F6B506B516B526B536B546B556BE9
:10340000566B576B586B596B5A6B5B6B5C6B5D6B98
:103410005E6B5F6B606B616B626B636B646B656B48
:10342000666B676B686B696B6A6B6B6B6C6B6D6BF8
:103430006E6B6F6B706B716B726B736B746B756BA8
:10344000766B776B786B796B7A6B7B6B7C6B7D6B58
:103450007E6B7F6B806B816B826B836B846B856B08
:10346000866B876B886B896B8A6B8B6B8C6B8D6BB8
:103470008E6B8F6B906B916B926B936B946B956B68
:10348000966B976B986B996B9A6B9B6B9C6B9D6B18
:103490009E6B9F6BA06BA16BA26BA36BA46BA56BC8
:1034A000A66BA76BA86BA96BAA6BAB6BAC6BAD6B78
:1034B000AE6BAF6BB06BB16BB26BB36BB46BB56B28
:1034C000B66BB76BB86BB96BBA6BBB6BBC6BBD6BD8
:1034D000BE6BBF6BC06BC16BC26BC36BC46BC56B88
:1034E000C66BC76BC86BC96BCA6BCB6BCC6BCD6B38
:1034F000CE6BCF6BD06BD16BD26BD36BD46BD56BE8
:10350000D66BD76BD86BD96BDA6BDB6BDC6BDD6B97
:10351000DE6BDF6BE06BE16BE26BE36BE46BE56B47
:10352000E66BE76BE86BE96BEA6BEB6BEC6BED6BF7
:10353000EE6BEF6BF06BF16BF26BF36BF46BF56BA7
:10354000F66BF76BF86BF96BFA6BFB6BFC6BFD6B57
:10355000FE6BFF6B0401006B016B026B036B046B72
:10356000056B066B076B086B096B0A6B0B6B0C6BBF
:103570000D6B0E6B0F6B106B116B126B136B146B6F
:10358000156B166B176B186B196B1A6B1B6B1C6B1F
:103590001F6F206F216F226F236F246F256F266F9F
:1035A000276FDF0E286FFF0E296F2A6F2B6F2C6F8E
:1035B0002D6F2E6F2F6F8F0E306FFF0E316F326FAA
:1035C000336F346F356F366F376F8F0E386FFF0E76
:1035D000396F3A6F3B6F3C6F3D6F3E6F3F6F270E09
:1035E000406FFF0E416F426F436F446F456F466FF0
:1035F000FE0E476F670E486FFF0E496F4A6F4B6FA5
:103600004C6F4D6F4E6FFE0E4F6F730E506FFF0E6F
:10361000516F526F536F546F556F566FFC0E576F4B
:10362000E30E586FFF0E596F5A6F5B6F5C6F5D6FE3
:103630005E6FFC0E5F6FE10E606FFF0E616F626F79
:10364000636F646F656FFD0E666FF90E676FCC0E6A
:10365000686FFF0E696F6A6F6B6F6C6F6D6FF80E3E
:103660006E6FF90E6F6FCC0E706FFF0E716F726F11
:10367000736F746F756FF80E766FF30E776FDE0EE3
:10368000786F7F0E796FFF0E7A6F7B6F7C6F7D6F27
:10369000FB0E7E6FF30E7F6FFE0E806F7F0E816FCD
:1036A000FF0E826F836F846F856F866FE40E876F66
:1036B000FC0E886F3F0E896F3B0E8A6F210E8B6F59
:1036C0008C0E8C6F730E8D6F270E8E6FE40E8F6FC6
:1036D000DC0E906FBF0E916F3B0E926F210E936FB9
:1036E0000C0E946F330E956F270E966FCC0E976F5E
:1036F000990E986F9F0E996F3B0E9A6F330E9B6FCA
:10370000250E9C6F330E9D6F070E9E6FD90E9F6F17
:103710009B0EA06FCF0EA16F1B0EA26F330EA36F77
:10372000650EA46F230EA56F070EA66F990EA76FE7
:10373000930EA86FCF0EA96F1B0EAA6F330EAB6F3F
:10374000640EAC6F610EAD6F070EAE6FBB0EAF6F48
:10375000360EB06FE60EB16F1B0EB26F330EB36F45
:10376000640EB46F210EB56F070EB66F390EB76FCA
:10377000640EB86F6E0EB96F5B0EBA6F330EBB6F0F
:10378000650EBC6F210EBD6F070EBE6F9C0EBF6F26
:103790004C0EC06FCE0EC16F1B0EC26F730EC36F87
:1037A000250EC46F210EC56F070EC66F9C0EC76F26
:1037B000CD0EC86F9E0EC96F080ECA6F730ECB6F09
:1037C0000C0ECC6F210ECD6F270ECE6FCC0ECF6FAF
:1037D000C90ED06F9E0ED16FCC0ED26F730ED36F09
:1037E0008C0ED46F4C0ED56F270ED66FE90ED76FA7
:1037F000DB0ED86F3F0ED96FFF0EDA6FDB6FDC6F19
:10380000DD6FDE6FE00EDF6FF20EE06F3F0EE16FF7
:10381000FF0EE26FE36FE46FFE0EE56FFF0EE66FE3
:10382000F00EE76FE60EE86F7F0EE96FFF0EEA6FAE
:10383000EB6FEC6FED6FEE6FF20EEF6F660EF06FE9
:103840007F0EF16FFF0EF26FF36FF46F850EF56F61
:103850000F0EF66FFE0EF76F4F0EF86FFF0EF96F3B
:10386000FA6FFB6FFC6F940EFD6F4F0EFE6FFF0E35
:10387000FF6F0F0E0501006FFF0E016F026F036FE8
:10388000046F8A0E056F0F0E066FFF0E076F9F0EF7
:10389000086FFF0E096F0A6F0B6F0C6F0D6FBF0E75
:1038A0000E6FFF0E0F6F9F0E106FFF0E116F126FD6
:1038B000136F146F156FBF0E166FFF0E176F186F13
:1038C000196F1A6F1B6F1C6F1D6F1E6F200E1F6FFD
:1038D000206F3A0E216F200E226F236F246B256F0D
:1038E000266F2F0E276F200E286F296F2F0E2A6F3D
:1038F000320E2B6F300E2C6F2D6B480E2E6F3A0E42
:103900002F6F300E306F316F326F336F346F3A0E6E
:10391000356F300E366F376F200E386F396B540E9F
:103920003A6F3A0E3B6F300E3C6F3D6F3E6F3F6F0C
:10393000406F3A0E416F300E426F436F200E446F5E
:10394000456B530E466F450E476F470E486F496BE8
:10395000540E4A6F450E4B6F520E4C6F4D6B510E0D
:103960004E6F550E4F6F410E506F516B510E526F8F
:10397000550E536F490E546F556B530E566F450ECF
:10398000576F580E586F596B530E5A6F410E5B6F3D
:10399000420E5C6F5D6B440E5E6F4F0E5F6F4D0E9F
:1039A000606F616BC150C00B0F09C16EC090C092B7
:1039B000C094C09EC2809698D190C00ED56ECD6A3C
:1039C000000ECA6E000ECB6E070EB46E9250926E51
:1039D000100E006E002EFED70000B450A19CB56AF8
:1039E000F2949E90F28A9D80C00EF212600ED36E09
:1039F000400E9B6ED350F19E0001F3EF05F0B0EF47
:103A000006F023EF09F0F9EF0BF02AEF10F00501B3
:103A10006651865DD8B47FD07F510208D8B47BD080
:103A200066C586F5872BD8B4882B62A307D062B50C
:103A300005D062B703D08D2BD8B48E2B885303E109
:103A400087513B080AE2010E8927D8B08A2BD8B4E7
:103A50008B2BD8B48C2B886B876B8E5303E18D51E5
:103A60003B0805E28F2BD8B4902B8E6B8D6B88C5ED
:103A70009DF587C59CF59F6B0A0E9E6F00018DEC2E
:103A800006F00501300E0024376F88C59DF587C507
:103A90009CF59F6B0A0E9E6F00018DEC06F0300EB8
:103AA00005010124366F8AC59DF589C59CF5050E73
:103AB0009F6F2E0E9E6F8AC5A1F589C5A0F50001E6
:103AC00016EC06F08EC59DF58DC59CF505019F6B26
:103AD0000A0E9E6F00018DEC06F00501300E0024E9
:103AE000436F8EC59DF58DC59CF59F6B0A0E9E6F2D
:103AF00000018DEC06F0300E05010124426F050E29
:103B00009F6F3A0E9E6F90C5A1F58FC5A0F500017D
:103B100016EC06F0050162A730D062B32ED062B574
:103B20002CD08E6B8D6B906B8F6B8EC59DF58DC57C
:103B30009CF59F6B0A0E9E6F00018DEC06F005014F
:103B4000300E0024436F8EC59DF58DC59CF59F6B8F
:103B50000A0E9E6F00018DEC06F0300E0501012467
:103B6000426F050E9F6F3A0E9E6F90C5A1F58FC5EF
:103B7000A0F5000116EC06F005018CC597F58BC584
:103B800096F58AC595F589C594F588C593F587C5D9
:103B900092F5755303E17451090816E2000102EF32
:103BA00016F08B909490166AF2BE168EF29EC80E96
:103BB0000601476F0001A2EC01F016BEF28E8B8069
:0E3BC00094900501756B746B00011FD7030014
:087FF800B0B1B2B3B4B5B6B7E5
:020000040030CA
:0E0000003CCE390E0085A5000FC00FE00F406A
:00000001FF
;PIC18F4550
;CRC=55B8  CREATED="15-set-23 09:09"
