:040000005FEF13F0AB
:08000800046ED8CF05F0E0CF33
:1000100006F00001E9CF0CF0EACF07F0E1CF08F0DD
:10002000E2CF09F0D9CF0AF0DACF0BF0F3CF12F01C
:10003000F4CF13F0FACF14F000C00EF001C00FF0AF
:1000400002C010F003C011F0F2AA2AEF00F0F2B4DF
:1000500045EF05F00EC000F00FC001F010C002F037
:1000600011C003F00CC0E9FF07C0EAFF078E08C00B
:10007000E1FF09C0E2FF0AC0D9FF0BC0DAFF12C0DE
:10008000F3FF13C0F4FF14C0FAFF045006C0E0FFF2
:1000900005C0D8FF1000F2CF0DF0F29EF76AB00F46
:1000A000F66E000EF7220900F5500DBEF28E12001A
:1000B000000000000000005F0000000700070014BF
:1000C0007F147F14242A7F2A12231308646236497E
:1000D0005620500008070300001C22410000412266
:1000E0001C002A1C7F1C2A08083E0808008070306B
:1000F00000080808080800006060002010080402DA
:100100003E5149453E00427F4000724949494621DF
:1001100041494D331814127F1027454545393C4A53
:10012000494931412111090736494949364649496A
:10013000291E0000140000004034000000081422B2
:100140004114141414140041221408020159090620
:100150003E415D594E7C1211127C7F494949363E21
:10016000414141227F4141413E7F494949417F0907
:100170000909013E414151737F0808087F00417F12
:1001800041002040413F017F081422417F40404010
:10019000407F021C027F7F0408107F3E4141413EA8
:1001A0007F090909063E4151215E7F091929460050
:1001B000F2CF0DF0F29EF76ACA0FF66E010EF7222B
:1001C0000900F5500DBEF28E12002649494932034E
:1001D000017F01033F4040403F1F2040201F3F4020
:1001E00038403F63140814630304780403615949D9
:1001F0004D43007F4141410204081020004141412C
:100200007F04020102044040404040000307080010
:1002100020545478407F2844443838444444283893
:100220004444287F385454541800087E090218A406
:10023000A49C787F0804047800447D40002040405E
:100240003D007F1028440000417F40007C0478047A
:10025000787C080404783844444438FC1824241872
:1002600018242418FC7C080404084854545424041A
:10027000043F44243C4040207C1C2040201C3C4047
:1002800030403C44281028444C9090907C44645466
:100290004C44000836410000007700000041360859
:1002A00000020102040205014B51016A4A5D03E2AA
:1002B0004AC500F00CD0006A080E4C6F4A37003671
:1002C0004B51005CD8B0006E01364C2FF7D70001BF
:1002D000000C080E016E00008A9293920000050146
:1002E00049378A90D8B09380D8A09390938281A206
:1002F000FED7012E01D002D00001EDD700008A9276
:1003000093920000938000000000938281A2FED7A8
:10031000016A000081B001808A9293928A90939042
:100320000001000C050EEA6E490EE96EEF500DE07B
:10033000060E016E006A002EFED7012EFBD77B0E43
:10034000006E002EFED7EF2EF3D7000C44C54AF501
:100350000A0E05014B6F0001A6DF01380501496F48
:10036000F00E491744C54AF50A0E4B6F00019BDF9A
:10037000005005014925446F43C54AF50A0E4B6FED
:10038000000191DF01380501496FF00E491743C59F
:100390004AF50A0E4B6F000186DF00500501492522
:1003A000436F46C54AF50A0E4B6F00017CDF0138EA
:1003B0000501496FF00E491746C54AF50A0E4B6F05
:1003C000000171DF005005014925466F47C54AF518
:1003D0000A0E4B6F000167DF01380501496FF00E0F
:1003E000491747C54AF50A0E4B6F00015CDF005004
:1003F00005014925476F48C54AF50A0E4B6F0001B4
:1004000052DF01380501496FF00E491748C54AF51A
:100410000A0E4B6F000147DF005005014925486F68
:1004200093800000938200008A90939000008A924B
:100430009392D00E496F00014CDF0501496B00011A
:1004400048DF0501496B000144DF44C549F541DF40
:1004500043C549F53EDF45C549F53BDF46C549F58E
:1004600038DF47C549F535DF48C549F532DF939098
:100470000000938281A2FED7000000D0000093808C
:100480000000C80E0501496F00014CDF000C958685
:1004900083B614D00401E06B0A0EDF6FDF5302E174
:1004A000E05305E0DF51D8B4E007DF07F7D79586C2
:1004B00083B602D01C96FBD71C8600011CA60BD06D
:1004C0000401EB53D8B402D0000105D0010EEB6F4C
:1004D000EA6F1C9600011CA610D00401EB2D01D080
:1004E00002D000010AD0EE53D8B402D0000105D0EA
:1004F000010EEE6FED6F1C9600011CA611D00401D9
:10050000EB510208D8B402D000010AD0F153D8B49C
:1005100002D0000105D0010EF16FF06F1C960001B2
:100520001CA611D00401EB510308D8B402D000017D
:100530000AD0F453D8B402D0000105D0010EF46FF4
:10054000F36F1C9600011CA60CD00401EB510408AB
:10055000D8B402D0000105D0010EF76FF66F1C96DB
:1005600000011CA61DD00401ED2D01D002D0000118
:1005700017D0EE2BEE51020811E2ED6BEE6BDAC4F0
:1005800043F5D9C444F5DBC445F5DCC446F5DDC408
:1005900047F5DEC448F50001D9DE04011C960001D0
:1005A0001CA61DD00401F02D01D002D0000117D0EF
:1005B000F12BF151040811E2F06BF16BDAC443F551
:1005C000D9C444F5DBC445F5DCC446F5DDC447F5C4
:1005D000DEC448F50001BADE04011C9600011CA629
:1005E00022D00401F32D01D002D000011CD0F4531D
:1005F000D8A402D0000117D0F42D03D0D583D5950F
:10060000D597F451020803E1D593D585D597F451D8
:10061000030803E1D593D595D587F45302E0F36B36
:10062000F46B1C960001958083B013D00401E06B3D
:100630000A0EDF6FDF5302E1E05305E0DF51D8B46B
:10064000E007DF07F7D7958083B002D01C88FBD77F
:1006500000011CA819D00401EB53D8A402D000015A
:1006600013D0EE53D8B402D000010ED0F153D8B459
:1006700002D0000109D0F453D8B402D0000104D054
:10068000EB6BEA6B1C9800011CA811D00401EB5322
:10069000D8A402D000010BD0EE53D8A402D00001A0
:1006A00006D0EE07EE53D8B4ED6B1C9800011CA8E1
:1006B00011D00401EB53D8A402D000010BD0F153A8
:1006C000D8A402D0000106D0F107F153D8B4F06BE2
:1006D0001C9800011CA811D00401F453D8A402D026
:1006E00000010BD0F32D01D002D0000106D0F3079A
:1006F000F353D8B4F46B1C980001958283B213D0E5
:100700000401E06B0A0EDF6FDF5302E1E05305E006
:10071000DF51D8B4E007DF07F7D7958283B202D064
:100720001C8CFBD700011CAC21D00401EB53D8A4D6
:1007300002D000011BD0EA2D01D002D0000116D05A
:10074000ED53D8B402D0000111D0F053D8B402D088
:1007500000010CD0F353D8B402D0000107D0EB2D28
:1007600002D0050EEB6FEB071C9C00011CAC25D0E2
:100770000401F12D01D002D000011FD0DD2BDD518D
:10078000040809E0DD51060806E0DD51090803E030
:10079000DD510C0803E1D5811C9E08D0DD51020813
:1007A00003E11C8ED59102D01C9ED591DD510C0821
:1007B00002E2010EDD6F1C9C00011CAC1FD0040185
:1007C000F1510208D8B402D0000118D0DC2BD5A119
:1007D00006D0DC511E0802E2010EDC6F0DD01CAE0B
:1007E00006D0DC511C0802E2010EDC6F05D0DC51A2
:1007F0001F0802E2010EDC6F1C9C00011CAC0FD034
:100800000401F1510308D8B402D0000108D0DE2B56
:10081000DE513C0802E20A0EDE6F1C9C00011CAC9B
:100820000FD00401F1510408D8B402D0000108D05F
:10083000DB2BDB51070802E2010EDB6F1C9C000181
:100840001CAC0DD00401EE2D01D002D0000107D068
:10085000DA2BDA511708D8A0DA6B1C9C00011CAC0B
:100860000ED00401EE510208D8B402D0000107D026
:10087000D92BD9513B08D8A0D96B1C9C00011CACCA
:100880000DD00401F32D01D002D0000107D0F407F0
:10089000F45302E1030EF46F1C9C0001958483B4B1
:1008A00013D00401E06B0A0EDF6FDF5302E1E05367
:1008B00005E0DF51D8B4E007DF07F7D7958483B4AC
:1008C00002D01C8AFBD700011CAA22D00401EB53E2
:1008D000D8A402D000011CD0EA2D01D002D0000122
:1008E00017D0ED53D8B402D0000112D0F053D8B4D1
:1008F00002D000010DD0F353D8B402D0000108D0CB
:10090000EB2BEB51040802E2010EEB6F1C9A000185
:100910001CAA31D00401F12D01D002D000012BD04E
:10092000DD07DD51040809E0DD51060806E0DD5170
:10093000090803E0DD510C0803E1D5811C9E08D0B5
:10094000DD51020803E11C8ED59102D01C9ED59189
:10095000DD5302E10C0EDD6F1C9ADAC443F5D9C4F5
:1009600044F5DBC445F5DCC446F5DDC447F5DEC41B
:1009700048F50001EBDC1CAA29D00401F151020862
:10098000D8B402D0000122D0DC07D5A105D0DC53B9
:1009900002E11E0EDC6F0BD01CAE05D0DC5302E171
:1009A0001C0EDC6F04D0DC5302E11F0EDC6F1C9ABE
:1009B000DAC443F5D9C444F5DBC445F5DCC446F5D7
:1009C000DDC447F5DEC448F50001C0DC1CAA0FD029
:1009D0000401F1510308D8B402D0000108D0DE07A9
:1009E000DE510A0802E13C0EDE6F1C9A00011CAACF
:1009F0001BD00401F1510408D8B402D0000114D076
:100A0000DB07DB5302E1070EDB6F1C9ADAC443F508
:100A1000D9C444F5DBC445F5DCC446F5DDC447F56F
:100A2000DEC448F5000192DC1CAA0DD00401EE2DB5
:100A300001D002D0000107D0DA07DA5302E1170E25
:100A4000DA6F1C9A00011CAA0ED00401EE510208B4
:100A5000D8B402D0000107D0D95302E13B0ED96FC0
:100A6000D9071C9A00011CAA0DD00401F32D01D056
:100A700002D0000107D0F42BF451030802E2010E6A
:100A8000F46F1C9A00016AEF05F00401E12BD8B461
:100A9000E22B1CA203D0E52BD8B4E62BE551DC08F1
:100AA00005E1E651050802E18B909490E551AC0810
:100AB0000AE1E6510D0807E18B809490E66BE56B47
:100AC000E72BD8B4E82BE1511E0807E1E25305E11A
:100AD0000001DDD40401E26BE16BE7510A08D8A400
:100AE00093D0E853D8A490D01CA48ED006C544F56A
:100AF00007C545F50501466B476B456B466B476B74
:100B0000500EA96E44C5A8FFA69CA69EA684F250CE
:100B1000006EF29E0F01550EA76EAA0EA76EA6825A
:100B2000A6B2FED7A6940050F21205C544F506C53C
:100B300045F507C546F50501476B456B466B476BA9
:100B4000510EA96E44C5A8FFA69CA69EA684F2508D
:100B5000006EF29E0F01550EA76EAA0EA76EA6821A
:100B6000A6B2FED7A6940050F21205010451436FBD
:100B7000446B456B466B520EA96E43C5A8FFA69CFD
:100B8000A69EA684F250006EF29E0F01550EA76E2F
:100B9000AA0EA76EA682A6B2FED7A6940050F212A5
:100BA00003C543F50501446B446B560EA96E43C55E
:100BB000A8FFA69CA69EA684F250006EF29E0F018E
:100BC000550EA76EAA0EA76EA682A6B2FED7A69451
:100BD0000050F21205010251436F446B570EA96E8B
:100BE00043C5A8FFA69CA69EA684F250006EF29E66
:100BF0000F01550EA76EAA0EA76EA682A6B2FED74B
:100C0000A6940050F2120401F29400012AEF00F0C1
:100C1000050EEA6E0C0EE96EEF500DE0060E016E49
:100C2000006A002EFED7012EFBD77B0E006E002E31
:100C3000FED7EF2EF3D75BEF06F005011E6B938016
:100C40000000938200008A90939000008A92939211
:100C5000166AF2BE168EF29E17C049F5000169ECC5
:100C600001F016BEF28E166AF2BE168EF29E1EC5F8
:100C700049F569EC01F016BEF28E166AF2BE168EC8
:100C8000F29E1DC549F569EC01F016BEF28E9390F7
:100C90000000938281A2FED7000000D00000938064
:100CA0000000000C1DC418F01EC417F00A0E050148
:100CB0000C6F0001ADD7AE0E05011D6F0001BDDF49
:100CC000D50E05011D6F0001B8DF800E05011D6FF7
:100CD0000001B3DFA80E05011D6F0001AEDF3F0E5E
:100CE00005011D6F0001A9DFD30E05011D6F000175
:100CF000A4DF05011D6B0001A0DF400E05011D6F83
:100D000000019BDF8D0E05011D6F000196DF0401C0
:100D10001D2D06D0100E05011D6F00018EDF05D0C0
:100D2000140E05011D6F000188DF200E05011D6FE7
:100D3000000183DF05011D6B00017FDFA10E0501AE
:100D40001D6F00017ADFC80E05011D6F000175DF00
:100D5000DA0E05011D6F000170DF120E05011D6F17
:100D600000016BDF810E05011D6F000166DF0401CC
:100D70001D2D06D09F0E05011D6F00015EDF05D001
:100D8000CF0E05011D6F000158DFD90E05011D6F43
:100D9000000153DF04011D2D06D0220E05011D6F39
:100DA00000014BDF05D0F10E05011D6F000145DF8D
:100DB000DB0E05011D6F000140DF400E05011D6FB8
:100DC00000013BDFA40E05011D6F000136DFA60EFA
:100DD00005011D6F000131DF2E0E05011D6F0001A1
:100DE0002CDFAF0E05011D6F000127DF196A1A6A9B
:100DF000010E1B6EF5EF19F01EC501F01DC500F0C8
:100E00000066012A0900F5CFEEFF002EFBD7012E68
:100E1000F9D7F86A51EF07F005010D6B0C6B210E45
:100E20001D6F00010ADF05011D6B000106DF7F0E4B
:100E300005011D6F000101DF220E05011D6F00017C
:100E4000FCDE05011D6B0001F8DE05010F6B010ED4
:100E50000E6F0F53D8A477D00E51080874E3010E1B
:100E60001D6F0001EADE100E05011D6F0001E5DEB9
:100E7000010E05010E5D116F000E0F59126FF80E75
:100E800011277F0E1223F86A12C5F7FF11C5F6FF6E
:100E9000050EEA6E130EE96E1E6B010E1D6F00014A
:100EA000ABD713C51DF5C9DE938000009382000007
:100EB0008A90939000008A929392166AF2BE168EE0
:100EC000F29E17C049F569EC01F016BEF28E166A63
:100ED000F2BE168EF29E400E0501496F000169ECCC
:100EE00001F016BEF28E0501106B10510F0819E3C8
:100EF0001D0E0C25E96E000E0D21EA6EEFCF11F5E7
:100F0000166AF2BE168EF29E11C549F5000169EC13
:100F100001F016BEF28E05010C2BD8B40D2B102B50
:100F2000E4D70C51D8B40D070C07939000009382BE
:100F300081A2FED7000000D00000938000000E2B9D
:100F4000D8B40F2B86D70001000C05010D6B0C6B7C
:100F50000D5103080BE31D0E0C25E96E000E0D214B
:100F6000EA6EEF6A0C2BD8B40D2BF2D70001000CFF
:100F70000401EB6BEA6BEE6BED6BF16BF06BF46BFA
:100F8000F36BF26B0501096B086B0B6B0A6B1C9220
:100F90001C961C981C9A1C9C1C9E0401D591000157
:100FA000FBEF19F0016A026A006A036A05010F513A
:100FB00002E10E5118E0100E106FD8900C370D376B
:100FC000003603360F51035C02E10E51005C07E36B
:100FD0000E51005ED8A003060F51035ED880013683
:100FE0000236102FEAD70001000C0501166B156BB5
:100FF000146B126B136B11C518F510C517F5115151
:1010000026080BE2FF0A03E110510F0806E2162B37
:10101000100E105F270E115BF2D7115102080BE280
:10102000FF0A03E11051E70806E2152BE80E105FF6
:10103000030E115BF2D7115303E11051630806E26E
:10104000142B640E105F000E115BF5D7115303E1F2
:101050001051090806E2122B0A0E105F000E115BF8
:10106000F5D7115303E11051000806E2132B010ECE
:10107000105F000E115BF5D7300E162715271427C9
:1010800012271327060E0E25E96E000E0F21EA6EB9
:1010900013C5EFFF050E0E25E96E000E0F21EA6E57
:1010A00012C5EFFF040E0E25E96E000E0F21EA6E49
:1010B00014C5EFFF030E0E25E96E000E0F21EA6E38
:1010C00015C5EFFF020E0E25E96E000E0F21EA6E28
:1010D00016C5EFFF0001000C080E05010D6F00C0E2
:1010E0000EF593800000938281A2FED781B0D88054
:1010F00081A0D8900136000093928A920D2FF1D7EB
:10110000938000008A900E51D8A49390000093829F
:1011100081A2FED700008A92939200008A90939059
:101120000001000C050111517F0803E312513F0833
:1011300001E204D011C519F012C51AF0000130EF18
:101140000BF00501115302E1010E116F11C51BF0E7
:10115000000133EF0BF005013D517F0803E33E51E1
:101160003F0801E26ED03F5336E03E31006E003260
:1011700000321F0E00160050416B406F4035026E6A
:101180004135036E02360336023603360236033625
:10119000023603360236033602360336800E021656
:1011A00002503D25406F000E0320416F1D0E40256B
:1011B000E96E000E4121EA6E3E51070B016E010EF1
:1011C000006E015204E0D8900036012EFCD700508A
:1011D000EF10EF6E36D03E31006E003200321F0E3F
:1011E00000160050416B406F4035026E4135036E72
:1011F000023603360236033602360336023603362B
:101200000236033602360336800E021602503D25A2
:10121000406F000E0320416F1D0E4025E96E000E49
:101220004121EA6E3E51070B016E010E006E015224
:1012300004E0D8900036012EFCD70050FF0AEF14CE
:10124000EF6E0001000C05012F9128512C5D3D6FC0
:1012500029512D593E6F036E3D513EAF08D0000E0F
:10126000D8803D55006E000E3E55036E00503D6F18
:1012700003C03EF526512A5D3F6F27512B59406F21
:10128000036E3F5140AF08D0000ED8803F55006E2E
:10129000000E4055036E0050016E03AE03D03EAF0A
:1012A0000AD002D03EBF08D003503E5D05E303E103
:1012B0003D51015C01E22F812FA118D027C536F5E1
:1012C00026C535F529C527F528C526F536C529F5DE
:1012D00035C528F52BC538F52AC537F52DC52BF5AD
:1012E0002CC52AF538C52DF537C52CF52BAF03D005
:1012F00027AF0AD002D027BF1FD02B51275D1CE398
:1013000003E126512A5D18E227C53AF526C539F5CD
:101310002BC527F52AC526F53AC52BF539C52AF57B
:1013200029C53CF528C53BF52DC529F52CC528F563
:101330003CC52DF53BC52CF526512A5D006E275185
:101340002B5900C031F528512C5D3D6F29512D5985
:101350003E6F036E3D513EAF08D0000ED8803D5524
:10136000006E000E3E55036E0050326FD890313142
:10137000036A336F03C034F529AF03D02DAF0AD011
:1013800002D02DBF0AD029512D5D07E303E12C5176
:10139000285D03E2010E306F02D0FF0E306F27AFE1
:1013A00003D02BAF0AD002D02BBF48D027512B5DE2
:1013B00045E303E126512A5D41E32FA115D02E53C9
:1013C0000AE028C53DF526C53EF5010E3F6F000138
:1013D000C2DE08D0050128C53DF526C53EF53F6BA8
:1013E0000001B9DE14D005012E530AE026C53DF5F3
:1013F00028C53EF5010E3F6F0001ADDE08D00501A6
:1014000026C53DF528C53EF53F6B0001A4DE05016C
:101410003251335F000E345B34BF01D00BD0036A0E
:101420003051E8BE030628270350292331513327C2
:10143000000E3423262BD8B4272BB1D70001000C83
:10144000050123512225FF0F256F276B21C526F5A6
:10145000296B22C528F52B6B21C52AF52D6B2C6F26
:1014600024C52EF50001EFDE000C036A05011AC544
:101470001FF503C020F51C511A2520BF04D02053AE
:1014800011E11F5D0FE21FC521F51BC522F51DC52A
:1014900023F51EC524F50001D3DF05011F2BD8B4A9
:1014A000202BE9D70001000C05011251200805E1AD
:1014B000195203E11CA001D0CBD01251070804E15E
:1014C0001A6A1AC019F0C4D0125108080AE11B5058
:1014D000060DF350195C05E31B50060DF350195E21
:1014E000B7D012510D0802E1196AB2D012510A08A0
:1014F0000CE11B50080DF3501A261B50070DF3503A
:101500001A24400801E21A6AA3D012511F0803E20C
:1015100012517E0802E23F0E126F146B1451040840
:1015200061E31251520811E3200E125D050DF350D4
:101530001425036AF2CF17F5F29E00014BEC00F080
:10154000050117BFF28E166F10D0530E125D050DF8
:10155000F3501425036AF2CF17F5F29E0001D8EC80
:1015600000F0050117BFF28E166F156B15510608B6
:1015700037E316A102D0138101D013911B2C12D096
:1015800014511924176F15511A24186F000E13B136
:10159000010E17C53DF518C53EF53F6F0001DBDDB7
:1015A00019D0050114511B02F3501924176F15515E
:1015B0001B02F3501A24186F000E13B1010E17C549
:1015C0001AF518C51BF51BC01CF51BC01DF51E6FB9
:1015D00000014BDF05011551152BD8901633C6D7E6
:1015E000142B9CD71B50050DF3501924176F1B505B
:1015F000070DF3CF18F517C51AF51AC01BF51BC058
:101600001CF518C51DF51E6B00012FDF1B50060DC4
:10161000F35019261B50060DF350800F195C03E0A0
:1016200002E3800E196E1CA012D01B50050DF35062
:10163000192480080CE2196A1B50080DF3501A2671
:101640001B50070DF3501A24400801E21A6A0501E5
:10165000000133EF0BF00CC511F50DC512F562D585
:1016600010C511F56ED50FC503F005010EC5E9FFD4
:101670000FC5EAFFEF5212E00FC503F00E510E2B1B
:10168000D8B40F2BE96E03C0EAFFEFCF11F511C5F7
:1016900012F5000109D70001E6D705010001000C91
:1016A0000401D839006E0F0E001600500A0DF3CF5A
:1016B0000CF50401D8510F0B05010C250401D86F5E
:1016C000D939006E0F0E001600500A0DF3CF0CF53D
:1016D0000401D9510F0B05010C250401D96FDA392A
:1016E000006E0F0E001600500A0DF3CF0CF504012A
:1016F000DA510F0B05010C250401DA6FDC39006E9D
:101700000F0E001600500A0DF3CF0CF50401DC514A
:101710000F0B05010C250401DC6FDD39006E0F0E87
:10172000001600500A0DF3CF0CF50401DD510F0B2C
:1017300005010C250401DD6FDE39006E0F0E001669
:1017400000500A0DF3CF0CF50401DE510F0B05011B
:101750000C250401DE6F166AF2BE168EF29ED8C406
:101760004AF50A0E05014B6F000153EC01F016BE5D
:10177000F28E300E00240401266F166AF2BE168E19
:10178000F29ED8C44AF50A0E05014B6F000153ECD6
:1017900001F016BEF28E300E01240401256F166A88
:1017A000F2BE168EF29ED9C44AF50A0E05014B6FA1
:1017B000000153EC01F016BEF28E300E002404013D
:1017C000236F166AF2BE168EF29ED9C44AF50A0E2F
:1017D00005014B6F000153EC01F016BEF28E300E86
:1017E00001240401226F166AF2BE168EF29EDAC43C
:1017F0004AF50A0E05014B6F000153EC01F016BECD
:10180000F28E300E00240401206F166AF2BE168E8E
:10181000F29EDAC44AF50A0E05014B6F000153EC43
:1018200001F016BEF28E300E012404011F6F166AFD
:10183000F2BE168EF29EDEC44AF50A0E05014B6F0B
:10184000000153EC01F016BEF28E300E00240401AC
:101850002E6F166AF2BE168EF29EDEC44AF50A0E8E
:1018600005014B6F000153EC01F016BEF28E300EF5
:10187000012404012D6F166AF2BE168EF29EDDC49D
:101880004AF50A0E05014B6F000153EC01F016BE3C
:10189000F28E300E00240401296F166AF2BE168EF5
:1018A000F29EDDC44AF50A0E05014B6F000153ECB0
:1018B00001F016BEF28E300E01240401286F166A64
:1018C000F2BE168EF29EDCC44AF50A0E05014B6F7D
:1018D000000153EC01F016BEF28E300E002404011C
:1018E000266F166AF2BE168EF29EDCC44AF50A0E08
:1018F00005014B6F000153EC01F016BEF28E300E65
:1019000001240401256F0001A5EC07F00F0E05016D
:101910000C6F0C0E0D6F040E0F6F250E0E6F010E67
:10192000106F000198DE540E05010C6F0C0E0D6F48
:10193000040E0F6F1F0E0E6F010E106F00018BDE75
:101940007DEF0DF00401DB51010A00010BE0030AF9
:1019500016E0010A21E0070A2CE0010A37E0030A39
:1019600042E04ED0310E05010C6F0D6B040E0F6F6F
:10197000CD0E0E6F010E106F00016DDE4ED0310ED8
:1019800005010C6F0D6B040E0F6FA40E0E6F010E90
:10199000106F000160DE41D0310E05010C6F0D6B40
:1019A000040E0F6FAC0E0E6F010E106F000153DEB0
:1019B00034D0310E05010C6F0D6B040E0F6FB20E9B
:1019C0000E6F010E106F000146DE27D0310E0501AB
:1019D0000C6F0D6B040E0F6FB90E0E6F010E106FB2
:1019E000000139DE1AD0310E05010C6F0D6B040EAB
:1019F0000F6FC00E0E6F010E106F00012CDE0DD0A8
:101A0000310E05010C6F0D6B040E0F6FC60E0E6FBD
:101A1000010E106F00011FDE00D07EEF0DF09380ED
:101A20000000938200008A90939000008A92939223
:101A3000166AF2BE168EF29ED00E0501496F0001A5
:101A400069EC01F016BEF28E166AF2BE168EF29E98
:101A50000501496B000169EC01F016BEF28E93801E
:101A600000009382000081A2FED78A90939000002C
:101A70008A929392166AF2BE168EF29ED10E0501DC
:101A8000496F000169EC01F016BEF28E010E006E86
:101A90006CEC08F001C0D8F4020E006E6CEC08F09B
:101AA00001C0D9F4030E006E6CEC08F001C0DAF44A
:101AB000040E006E6CEC08F001C0DBF4050E006E45
:101AC0006CEC08F001C0DCF4060E006E6CEC08F063
:101AD00001C0DDF4070E006E6CEC08F001C0DEF40E
:101AE00093900000938281A2FED7000000D00000F6
:101AF00093800000A5EC07F0D3D524D7020E050192
:101B00000C6F190E0D6F040E0F6F300E0E6F020E5C
:101B1000106F0001A0DD020E05010C6F2D0E0D6F80
:101B2000040E0F6F3C0E0E6F020E106F000193DD5E
:101B30000CEC07F0166AF2BE168EF29E020E05013C
:101B4000496F000192EC01F016BEF28EDEEF0EF04E
:101B5000050113511125FF0F156F276B11C526F5D0
:101B6000296B12C528F52B6B2A6F2D6B12C52CF52E
:101B700014C52EF5000123EC09F0000C0CC511F57D
:101B80000DC512F50EC513F5010E0501146F000108
:101B9000DFDF05010F510D25FF0F106F0CC511F58B
:101BA000126F0EC513F5010E146F0001D1DF0CC5C5
:101BB00021F50DC522F50FC523F5010E0501246F92
:101BC00000013EDC05010E510C25FF0F106F216F47
:101BD0000DC522F50FC523F5010E246F000130DC81
:101BE000000C166AF2BE168EF29ED8C44AF50A0E92
:101BF00005014B6F000153EC01F016BEF28E300E62
:101C000000240401266F166AF2BE168EF29ED8C416
:101C10004AF50A0E05014B6F000153EC01F016BEA8
:101C2000F28E300E01240401256F166AF2BE168E64
:101C3000F29ED9C44AF50A0E05014B6F000153EC20
:101C400001F016BEF28E300E00240401236F166AD6
:101C5000F2BE168EF29ED9C44AF50A0E05014B6FEC
:101C6000000153EC01F016BEF28E300E0124040187
:101C7000226F166AF2BE168EF29EDAC44AF50A0E7A
:101C800005014B6F000153EC01F016BEF28E300ED1
:101C900000240401206F166AF2BE168EF29EDAC48A
:101CA0004AF50A0E05014B6F000153EC01F016BE18
:101CB000F28E300E012404011F6F166AF2BE168EDA
:101CC000F29EDEC44AF50A0E05014B6F000153EC8B
:101CD00001F016BEF28E300E002404012E6F166A3B
:101CE000F2BE168EF29EDEC44AF50A0E05014B6F57
:101CF000000153EC01F016BEF28E300E01240401F7
:101D00002D6F166AF2BE168EF29EDDC44AF50A0EDB
:101D100005014B6F000153EC01F016BEF28E300E40
:101D200000240401296F166AF2BE168EF29EDDC4ED
:101D30004AF50A0E05014B6F000153EC01F016BE87
:101D4000F28E300E01240401286F166AF2BE168E40
:101D5000F29EDCC44AF50A0E05014B6F000153ECFC
:101D600001F016BEF28E300E00240401266F166AB2
:101D7000F2BE168EF29EDCC44AF50A0E05014B6FC8
:101D8000000153EC01F016BEF28E300E0124040166
:101D9000256F0001000C0401EB51FB0FD8B016EFCA
:101DA00013F0050F000148EF13F01C820401E55108
:101DB000320805E1E65303E1000131D6040116EFD4
:101DC00013F00401ED5342E10001A5EC07F0020E0F
:101DD00005010C6F040E0D6F0F6F480E0E6F020E93
:101DE000106F000138DC05010C6B020E0D6F800EC8
:101DF0000E6F120E0F6F0001C1DE020E05010C6F97
:101E0000190E0D6F040E0F6F500E0E6F020E106F35
:101E1000000121DC020E05010C6F2E0E0D6F040E69
:101E20000F6F550E0E6F020E106F000114DC0CECDC
:101E300007F0166AF2BE168EF29E020E0501496F79
:101E4000000192EC01F016BEF28E0401EE51010A7F
:101E5000000103E0030A2EE05AD0C3DEA5EC07F030
:101E6000200E05010C6F040E0D6F0F6F610E0E6FCB
:101E7000020E106F00012BEC0BF0200E05010C6F11
:101E8000190E0D6F040E0F6F1F0E0E6F020E106FE6
:101E900000012BEC0BF00CEC07F0166AF2BE168E6C
:101EA000F29E020E0501496F000192EC01F016BE90
:101EB000F28E2DD096DEA5EC07F0140E05010C6F06
:101EC000040E0D6F0F6F670E0E6F020E106F000184
:101ED0002BEC0BF0200E05010C6F190E0D6F040E8C
:101EE0000F6F1F0E0E6F020E106F00012BEC0BF028
:101EF0000CEC07F0166AF2BE168EF29E020E050179
:101F0000496F000192EC01F016BEF28E00D0040180
:101F10008DD30401F05345E10001A5EC07F0020E5A
:101F200005010C6F040E0D6F0F6F480E0E6F020E41
:101F3000106F00012BEC0BF0020E05010C6F190E57
:101F40000D6F040E0F6F500E0E6F020E106F00011A
:101F50002BEC0BF005010C6B170E0D6F800E0E6F46
:101F6000120E0F6F00010ADE020E05010C6F2E0E1D
:101F70000D6F040E0F6F550E0E6F020E106F0001E5
:101F80002BEC0BF00CEC07F0166AF2BE168EF29EEC
:101F9000020E0501496F000192EC01F016BEF28EAF
:101FA0000401010EF15DFC0FD8B0D4D1040F000183
:101FB00032EF13F016DEA5EC07F02D0E05010C6FC5
:101FC000040E0D6F0F6F6F0E0E6F020E106F00017B
:101FD0002BEC0BF0050E05010C6F190E0D6F040EA6
:101FE0000F6F250E0E6F020E106F00012BEC0BF021
:101FF0000CEC07F0166AF2BE168EF29E020E050178
:10200000496F000192EC01F016BEF28E0401A2D1DC
:10201000E8DDA5EC07F02D0E05010C6F040E0D6F29
:102020000F6F730E0E6F020E106F00012BEC0BF092
:10203000050E05010C6F190E0D6F040E0F6F250EA6
:102040000E6F020E106F00012BEC0BF00CEC07F082
:10205000166AF2BE168EF29E020E0501496F00014D
:1020600092EC01F016BEF28E040174D1BADDA5EC3B
:1020700007F02D0E05010C6F040E0D6F0F6F770E1C
:102080000E6F020E106F00012BEC0BF0050E050118
:102090000C6F190E0D6F040E0F6F250E0E6F020ED2
:1020A000106F00012BEC0BF00CEC07F0166AF2BE7F
:1020B000168EF29E020E0501496F000192EC01F0AE
:1020C00016BEF28E040146D1010E0401DB5DF90F4C
:1020D000D8B03ED1070F000119EF13F0A5EC07F0BF
:1020E000190E05010C6F040E0D6F0F6F9C0E0E6F15
:1020F000020E106F00012BEC0BF0190E05010C6F96
:102100000D6F040E0F6FCD0E0E6F020E106F0001DB
:102110002BEC0BF00CEC07F0166AF2BE168EF29E5A
:10212000020E0501496F000192EC01F016BEF28E1D
:1021300004010ED1A5EC07F0190E05010C6F040E79
:102140000D6F0F6F9C0E0E6F020E106F00012BECC7
:102150000BF0190E05010C6F0D6F040E0F6FA40E1E
:102160000E6F020E106F00012BEC0BF00CEC07F061
:10217000166AF2BE168EF29E020E0501496F00012C
:1021800092EC01F016BEF28E0401E2D0A5EC07F04D
:10219000190E05010C6F040E0D6F0F6F9C0E0E6F64
:1021A000020E106F00012BEC0BF0230E05010C6FDB
:1021B000190E0D6F040E0F6FAC0E0E6F020E106F26
:1021C00000012BEC0BF00CEC07F0166AF2BE168E39
:1021D000F29E020E0501496F000192EC01F016BE5D
:1021E000F28E0401B5D0A5EC07F0190E05010C6FB5
:1021F000040E0D6F0F6F9C0E0E6F020E106F00011C
:102200002BEC0BF01E0E05010C6F190E0D6F040E5A
:102210000F6FB20E0E6F020E106F00012BEC0BF061
:102220000CEC07F0166AF2BE168EF29E020E050145
:10223000496F000192EC01F016BEF28E040188D0C5
:10224000A5EC07F0190E05010C6F040E0D6F0F6F52
:102250009C0E0E6F020E106F00012BEC0BF01E0E89
:1022600005010C6F190E0D6F040E0F6FB90E0E6F76
:10227000020E106F00012BEC0BF00CEC07F0166A4D
:10228000F2BE168EF29E020E0501496F000192EC1D
:1022900001F016BEF28E04015BD0A5EC07F0190E1A
:1022A00005010C6F040E0D6F0F6F9C0E0E6F020E6A
:1022B000106F00012BEC0BF0230E05010C6F190EB3
:1022C0000D6F040E0F6FC00E0E6F020E106F000127
:1022D0002BEC0BF00CEC07F0166AF2BE168EF29E99
:1022E000020E0501496F000192EC01F016BEF28E5C
:1022F00004012ED0A5EC07F0190E05010C6F040E99
:102300000D6F0F6F9C0E0E6F020E106F00012BEC05
:102310000BF01E0E05010C6F190E0D6F040E0F6FE2
:10232000C60E0E6F020E106F00012BEC0BF00CECC2
:1023300007F0166AF2BE168EF29E020E0501496F74
:10234000000192EC01F016BEF28E040101D00401EE
:10235000000104016BD10401F35346E10001A5EC37
:1023600007F0020E05010C6F040E0D6F0F6F480E83
:102370000E6F020E106F00012BEC0BF0020E050128
:102380000C6F190E0D6F040E0F6F500E0E6F020EB4
:10239000106F00012BEC0BF0020E05010C6F2E0EDE
:1023A0000D6F040E0F6F550E0E6F020E106F0001B1
:1023B0002BEC0BF005010C6B2C0E0D6F800E0E6FCD
:1023C000120E0F6F0001BEEC0DF00CEC07F0166A58
:1023D000F2BE168EF29E020E0501496F000192ECCC
:1023E00001F016BEF28E0401F451010A000106E06C
:1023F000030A49E0010AD8B48BD0CFD0A5EC07F08E
:10240000020E05010C6F040E0D6F0F6F7B0E0E6F29
:10241000020E106F00012BEC0BF005010C6B020E8D
:102420000D6F800E0E6F120E0F6F0001BEEC0DF0DF
:10243000020E05010C6F190E0D6F040E0F6F860E44
:102440000E6F020E106F00012BEC0BF0020E050157
:102450000C6F2E0E0D6F040E0F6F910E0E6F020E8D
:10246000106F00012BEC0BF00CEC07F0166AF2BEBB
:10247000168EF29E020E0501496F000192EC01F0EA
:1024800016BEF28E8AD0A5EC07F0020E05010C6F85
:10249000040E0D6F0F6F7B0E0E6F020E106F00019A
:1024A0002BEC0BF0020E05010C6F190E0D6F040ED4
:1024B0000F6F860E0E6F020E106F00012BEC0BF0EB
:1024C00005010C6B170E0D6F800E0E6F120E0F6F45
:1024D0000001BEEC0DF0020E05010C6F2E0E0D6F0B
:1024E000040E0F6F910E0E6F020E106F00012BEC99
:1024F0000BF00CEC07F0166AF2BE168EF29E020E7E
:102500000501496F000192EC01F016BEF28E45D034
:10251000A5EC07F0020E05010C6F040E0D6F0F6F96
:102520007B0E0E6F020E106F00012BEC0BF0020EF3
:1025300005010C6F190E0D6F040E0F6F860E0E6FD6
:10254000020E106F00012BEC0BF0020E05010C6F58
:102550002E0E0D6F040E0F6F910E0E6F020E106F88
:1025600000012BEC0BF005010C6B2C0E0D6F800E97
:102570000E6F120E0F6F0001BEEC0DF00CEC07F0A9
:10258000166AF2BE168EF29E020E0501496F000118
:1025900092EC01F016BEF28E00D0040147D0A5ECFB
:1025A00007F0020E05010C6F040E0D6F0F6F500E39
:1025B0000E6F020E106F00012BEC0BF0020E0501E6
:1025C0000C6F190E0D6F040E0F6F550E0E6F020E6D
:1025D000106F00012BEC0BF0020E05010C6F2E0E9C
:1025E0000D6F040E0F6F5B0E0E6F020E106F000169
:1025F0002BEC0BF005010C6B2C0E0D6F800E0E6F8B
:10260000120E0F6F0001BEEC0DF00CEC07F0166A15
:10261000F2BE168EF29E020E0501496F000192EC89
:1026200001F016BEF28E040101D00401000194EF06
:102630001AF0F2CF0DF0F29EE824F76AF736570F42
:10264000F66E260EF7220A00F550FA6E0800F550D5
:102650000DBEF28EF96EDC2034218C21E621402261
:102660009A22F422F2CF0DF0F29EE824F76AF736B0
:10267000890FF66E260EF7220A00F550FA6E080052
:10268000F5500DBEF28EF96EB41F10206C20C820DC
:10269000F2CF0DF0F29EE824F76AF736B50FF66E2A
:1026A000260EF7220A00F550FA6E0800F5500DBE0E
:1026B000F28EF96EAA1DC21D121F56239E25F86ABE
:1026C000D09E078EEA6AE96AB886080EAF6E020EDF
:1026D000B06EA60EAC6E900EAB6E1C80020E0401A6
:1026E0001D6F780E1E6F1C921C94D593D595D597AF
:1026F000E06BDF6BE26BE16BE46BE36BE66BE56B6E
:10270000C150C00B0F09C16E070EB46E1D6A1E6A60
:102710001F6A206A216A226A236A246A256A266A55
:10272000276A286A296A2A6A2B6A2C6A2D6A2E6A05
:102730002F6A306A316A326A336A346A356A366AB5
:10274000376A386A396A3A6A3B6A3C6A3D6A3E6A65
:102750003F6A406A416A426A436A446A456A466A15
:10276000476A486A496A4A6A4B6A4C6A4D6A4E6AC5
:102770004F6A506A516A526A536A546A556A566A75
:10278000576A586A596A5A6A5B6A800E5C6E5D6E57
:102790005E6E5F6A0001606B616B626B636B646BA2
:1027A000656B666B676B686B696B6A6B6B6B6C6B8D
:1027B0006D6B6E6F6F6FC00E706F716F726B736B3E
:1027C000746B756B766B776B786B796B7A6B7B6BF5
:1027D0007C6B7D6B7E6B7F6B806B816B826B836BA5
:1027E000846B856B866B876B886B896B8A6B8B6B55
:1027F0008C6B8D6B8E6B8F6B906B916B926B936B05
:10280000946B956B966B976B986B996B9A6B9B6BB4
:102810009C6B9D6B9E6B9F6BA06BA16BA26BA36B64
:10282000A46BA56BA66BA76BA86BA96BAA6BAB6B14
:10283000AC6BAD6BAE6BAF6BB06B800EB16FC00E9F
:10284000B26FE00EB36FF00EB46FF80EB56FFC0E02
:10285000B66FF80EB76FE00EB86FB96BBA6BBB6BA3
:10286000BC6BBD6BBE6BBF6BC06BC16BC26BC36B14
:10287000C46BC56BC66BC76BC86BC96B800ECA6F68
:10288000CB6FCC6FCD6FCE6FCF6BD06FD16FD26B64
:10289000D36BD46BD56BD66FD76FD86FD96FDA6F18
:1028A000DB6BFF0EDC6FDD6FDE6FDF6BE06BE16B10
:1028B000E26B800EE36FE46FE56FE66FE76BE86B4A
:1028C000E96FEA6FEB6BEC6BED6FFF0EEE6FEF6F86
:1028D000800EF06FF16FF26BF36FF46FF56BF66FC4
:1028E000F76FF86FF96FFA6BFB6FFC6FFD6BFE6BA8
:1028F000FF6B0101006B016B026F036F046B056BD3
:102900008C0E066F8E0E076F840E086F096B0A6BB4
:10291000800E0B6FF80E0C6F0D6F0E6F800E0F6F29
:10292000106B116B126B136B146B156B166B176BB3
:10293000186B196B1A6B1B6B1C6BF00E1D6F1E6FE7
:102940001F6F206F216F226F236F246F256F266FFB
:10295000276F286FE00E296F2A6FC00E2B6F800E35
:102960002C6F2D6BE00E2E6FFC0E2F6FFE0E306F56
:10297000FF0E316F326F336F7F0E346FFF0E356F86
:10298000366F376F386F396F3A6B3B6B3C6B3D6B13
:102990003E6B3F6B406B416B426B436B446B456BD3
:1029A000466B476BFE0E486FFF0E496FC70E4A6FAE
:1029B000010E4B6F4C6F4D6F4E6F830E4F6FFF0EBE
:1029C000506F516F526B536B7C0E546FFE0E556FF0
:1029D000C70E566F010E576F586F596F5A6F830E9F
:1029E0005B6FFF0E5C6F5D6F5E6F5F6B380E606FCD
:1029F000FE0E616FC70E626F830E636F010E646F10
:102A0000656F666F830E676FC70E686FFF0E696F25
:102A10006A6F6B6B6C6B010E6D6FFF0E6E6F6F6F7D
:102A2000010E706F716F726BFF0E736F746F070E14
:102A3000756F010E766F776F786F796B7A6B7F0E9B
:102A40007B6FFF0E7C6F800E7D6F7E6B7F6B806B6C
:102A5000FF0E816F826F7F0E836F846B856BFF0E1D
:102A6000866F876F886F896B8A6B010E8B6FFF0E85
:102A70008C6F8D6F8E6F010E8F6F906B916B926B61
:102A8000936B946B956B966B976B986B996B9A6B3A
:102A90009B6B9C6B030E9D6F0F0E9E6F3F0E9F6F87
:102AA0007F0EA06FA16FFF0EA26FA36FA46FA56F23
:102AB000A66FA76FA86FE70EA96FC70EAA6FAB6FBF
:102AC0008F0EAC6FAD6F9F0EAE6FBF0EAF6FFF0E70
:102AD000B06FB16FC30EB26FC00EB36FF00EB46FB4
:102AE000FF0EB56FB66FB76FB86FB96FFC0EBA6FE8
:102AF000BB6FBC6FBD6FBE6FBF6FC06FC16FF80E95
:102B0000C26FC36FF00EC46FC56FE00EC66FC00E0C
:102B1000C76FC86B010EC96F030ECA6FCB6FCC6F46
:102B2000CD6FCE6F010ECF6F030ED06FD16FD26B12
:102B3000D36BD46BD56B010ED66F030ED76FD86FE6
:102B4000D96FDA6F010EDB6FDC6F030EDD6F010EE4
:102B5000DE6FDF6BE06BE16BE26F030EE36FE46F40
:102B6000E56FE66F010EE76FE86F030EE96FEA6F3E
:102B7000EB6BEC6BED6BEE6FEF6FF06BF16BF26B81
:102B8000F36FF46FF56BF66BF76BF86BF96BFA6B31
:102B9000FB6B010EFC6F030EFD6FFE6FFF6F0201FA
:102BA000006F016F010E026F036B046B056B066F04
:102BB000030E076F010E086F096B0A6B0B6B030E98
:102BC0000C6F0D6F010E0E6F0F6B106B116B126B94
:102BD000136B146B156B166B176B186B196B1A6BE9
:102BE0001B6B1C6B1D6B1E6B1F6B800E206FC00E52
:102BF000216FE00E226FF00E236FF90E246FFF0E8F
:102C0000256F266F276F286F296F3F0E2A6F1F0EC3
:102C10002B6F0F0E2C6F870E2D6FC70E2E6FF70EBA
:102C20002F6FFF0E306F316F1F0E326F336F3D0EFF
:102C3000346FFC0E356FF80E366F376F386F396FA3
:102C40007C0E3A6F7D0E3B6FFF0E3C6F3D6F3E6F0B
:102C50003F6F406F416F426F436F7F0E446F3F0E77
:102C6000456F0F0E466F070E476F486B300E496F6A
:102C70004A6F4B6B4C6B4D6B4E6B4F6B506B516B8C
:102C8000526B536B546B556B566B576B586B596B40
:102C90005A6B5B6B5C6B5D6B5E6B5F6B606BFE0EB0
:102CA000616F626FFC0E636F646B656B666B676B65
:102CB000686B696B6A6B6B6B6C6B6D6B6E6B6F6B60
:102CC000706B716B726B736B746B756B766B776B10
:102CD000786B796BE00E7A6FC00E7B6F7C6B7D6BCF
:102CE0007E6B7F6B806B816B826B836B846B856B80
:102CF000866B300E876F886F896B8A6B8B6B8C6BE2
:102D00008D6B8E6B8F6B906B916B926B936B946BE7
:102D1000956B966B976B986B996B9A6B9B6B9C6B97
:102D20009D6BC00E9E6FFE0E9F6FFF0EA06FA16F7A
:102D3000A26FA36FA46FA56FA66FA76FA86F7F0E7A
:102D4000A96FAA6F3F0EAB6F1F0EAC6F0F0EAD6F6A
:102D5000070EAE6F1F0EAF6F7F0EB06FFF0EB16F1D
:102D6000B26FF80EB36FB46FFF0EB56FB66FB76F7B
:102D7000B86FB96FFE0EBA6FF80EBB6FE00EBC6F86
:102D8000BD6BBE6BBF6B010EC06FC16BC26BC36B03
:102D9000C46BC56BC66BC76BC86BFE0EC96FCA6FC1
:102DA000CB6BCC6BCD6BFC0ECE6FFE0ECF6FFC0EE3
:102DB000D06F0C0ED16F060ED26FD36F0E0ED46F84
:102DC000FC0ED56FF80ED66FD76BD86BF00ED96F9F
:102DD000F80EDA6F1C0EDB6F0E0EDC6F060EDD6F69
:102DE000DE6FDF6F0C0EE06FFF0EE16FE26FE36FDF
:102DF000E46BE56BFE0EE66FE76FE86BE96BEA6B81
:102E0000EB6BFC0EEC6FFE0EED6FFC0EEE6FEF6BDE
:102E1000180EF06F3C0EF16F7E0EF26F660EF36FC0
:102E2000E60EF46FCE0EF56F840EF66FF76BF86B4F
:102E3000060EF96FFF0EFA6FFB6F060EFC6FFD6F4B
:102E4000FC0EFE6FFE0EFF6FFC0E0301006F0C0EFA
:102E5000016F060E026F036F046F056B066BFE0EAB
:102E6000076F086F096B0A6BC00E0B6FF80E0C6FC3
:102E7000FC0E0D6F4E0E0E6F460E0F6F106F116F22
:102E80004E0E126F7C0E136F780E146F400E156F7E
:102E9000180E166F3C0E176F760E186FE60E196F30
:102EA000CE0E1A6FCC0E1B6F800E1C6F1D6B1E6B2F
:102EB0001F6B206B216B226B236B246B256B266BA6
:102EC000276B286B296B2A6B2B6B2C6B2D6B2E6B56
:102ED0002F6B306B010E316F070E326F0F0E336F99
:102EE0001F0E346F356F3F0E366F376F386F396F87
:102EF0001F0E3A6F0F0E3B6F030E3C6F3D6B3E6B28
:102F00003F6B406B416B426B436B446B456B466B55
:102F1000476B486B0F0E496F4A6F4B6B4C6B4D6B99
:102F20004E6F4F6F506F516B526B536B546B556FAD
:102F3000566F576B586B030E596F070E5A6F0E0E74
:102F40005B6F0C0E5C6F180E5D6F5E6F0C0E5F6F2B
:102F5000060E606F0F0E616F626F636F646B656B5F
:102F6000010E666F0F0E676F0E0E686F0C0E696FA5
:102F7000180E6A6F0C0E6B6F0F0E6C6F070E6D6F75
:102F8000010E6E6F6F6B040E706F0E0E716F0C0E74
:102F9000726F180E736F0C0E746F0F0E756F070E35
:102FA000766F776B786B796B0F0E7A6F7B6F7C6BBC
:102FB0007D6B7E6F7F6F806F816B826B836B846BA9
:102FC000856B866B876F886F896B8A6B8B6B070E3F
:102FD0008C6F8D6F0C0E8E6F8F6F180E906F1C0E96
:102FE000916F0C0E926F060E936F946F956B040E9B
:102FF000966F0E0E976F0C0E986F180E996F0C0E41
:103000009A6F0F0E9B6F070E9C6F9D6B9E6B9F6B55
:10301000A06BA16BA26BA36BA46BA56BA66BA76B3C
:10302000A86BA96BAA6BAB6BAC6BAD6BAE6BAF6BEC
:10303000B06BB16BB26BB36BB46BB56BB66BB76B9C
:10304000B86BB96BBA6BBB6BBC6BBD6BBE6BBF6B4C
:10305000C06BC16BC26BC36BC46BC56BC66BC76BFC
:10306000C86BC96BCA6BCB6BCC6BCD6BCE6BCF6BAC
:10307000D06BD16BD26BD36BD46BD56BD66BD76B5C
:10308000D86BD96BDA6BDB6BDC6BDD6BDE6BDF6B0C
:10309000E06BE16BE26BE36BE46BE56BE66BE76BBC
:1030A000E86BE96BEA6BEB6BEC6BED6BEE6BEF6B6C
:1030B000F06BF16BF26BF36BF46BF56BF66BF76B1C
:1030C000F86BF96BFA6BFB6BFC6BFD6BFE6BFF6BCC
:1030D0000401006B016B026B036B046B056B066BE9
:1030E000076B086B096B0A6B0B6B0C6B0D6B0E6B34
:1030F0000F6B106B116B126B136B146B156B166BE4
:10310000176B186B196B1A6B1B6B1C6B200E1F6FE8
:10311000206F3A0E216F200E226F236F246B256FD4
:10312000266F2F0E276F200E286F296F2F0E2A6F04
:10313000320E2B6F300E2C6F200E2D6F2E6F2F6BDB
:10314000480E306F3A0E316F300E326F336F346F7E
:10315000356F366F3A0E376F300E386F396F200E7D
:103160003A6F3B6B540E3C6F3A0E3D6F300E3E6F24
:103170003F6F406F416F426F3A0E436F300E446FA6
:10318000456F200E466F476B520E486F650E496FB4
:103190006C0E4A6F6F0E4B6F670E4C6F690E4D6F62
:1031A0006F0E4E6F4F6B440E506F610E516F740E69
:1031B000526F610E536F546B540E556F690E566FFC
:1031C0006D0E576F650E586F720E596F5A6B530E16
:1031D0005B6F6F0E5C6F620E5D6F720E5E6F650EE1
:1031E0005F6F606B480E616F6F0E626F720E636F80
:1031F000610E646F730E656F666B4D0E676F690EBF
:10320000686F6E0E696F750E6A6F740E6B6F6F0E5E
:103210006C6F730E6D6F6E6B4D0E6F6F650E706F12
:10322000730E716F726B440E736F690E746F610E63
:10323000756F766B410E776F6E0E786F6F0E796FCC
:103240007A6B490E7B6F6E0E7C6F690E7D6F740E0C
:103250007E6F200E7F6F806F740E816F650E826FA0
:103260006D0E836F700E846F856B530E866F740EB8
:10327000876F6F0E886F700E896F200E8A6F8B6F4D
:10328000740E8C6F650E8D6F6D0E8E6F700E8F6F5E
:10329000906B520E916F650E926F730E936F650E69
:1032A000946F740E956F200E966F740E976F650E67
:1032B000986F6D0E996F700E9A6F9B6B440E9C6F9A
:1032C000690E9D6F610E9E6F200E9F6F730EA06F33
:1032D000650EA16F6D0EA26FA36B530EA46F450E0A
:1032E000A56F470EA66F550EA76F4E0EA86F440E22
:1032F000A96F410EAA6FAB6B540EAC6F450EAD6F4C
:10330000520EAE6F430EAF6F410EB06FB16B510EE8
:10331000B26F550EB36F410EB46F520EB56F540EAF
:10332000B66F410EB76FB86B510EB96F550EBA6FCD
:10333000490EBB6F4E0EBC6F540EBD6F410EBE6F7B
:10334000BF6B530EC06F450EC16F580EC26F540E47
:10335000C36F410EC46FC56B530EC66F410EC76F6E
:10336000420EC86F410EC96F440ECA6F4F0ECB6F2D
:10337000CC6B440ECD6F4F0ECE6F4D0ECF6F490EFE
:10338000D06F4E0ED16F470ED26F4F0ED36FD46BEE
:10339000C150C00B0F09C16EC090C092C094C09EB6
:1033A000C2809698D190C00ED56ECD6A000ECA6EBE
:1033B000000ECB6E070EB46E9250926E100E006E21
:1033C000002EFED70000B450A19CB56AF2949E90E6
:1033D000F28A9D80C00EF212600ED36E400E9B6E7C
:1033E000D350F19E000152EF06F00CEC07F0A5EC73
:1033F00007F0B8EF07F0166AF2BE168EF29E320E94
:103400000501496F000192EC01F016BEF28E040135
:10341000D76BD751020822E306C507F505C506F5A7
:1034200004C505F50501046B500E0401D7250501FF
:103430000C6FF2CF0DF5F29E0CC5A9FFA69CA69EBF
:10344000A680A8500DBFF28E0427000E0523000EA3
:103450000623000E07230401D72BDBD70501043D0B
:103460000AD0053D08D0063D06D0073D04D0076BC5
:10347000066B056B046B0401D76BD76BD751010842
:103480001AE302C503F50501026B560E0401D725A8
:1034900005010C6FF2CF0DF5F29E0CC5A9FFA69C9D
:1034A000A69EA680A8500DBFF28E0227000E032311
:1034B0000401D72BE3D70501023D04D0033D02D020
:1034C000036B026B03C50DF502C50CF50F6B0A0EFD
:1034D0000E6F0001D2EC07F00501300E002404014C
:1034E000396F03C50DF502C50CF505010F6B0A0E0A
:1034F0000E6F0001D2EC07F0300E0501012404012B
:10350000386F1C8405C50DF504C50CF5040E0501C6
:103510000F6F300E0E6F05C511F504C510F50001D3
:10352000F5EC07F0CBEF0EF00401D9510501015D78
:10353000D8B48DD00401EE510208D8A402D0050100
:1035400086D0D9C401F50501022BD8B4032B0401A0
:10355000D5A308D0D5B506D0D5B704D00501082B22
:10356000D8B4092B0501035303E102513B080AE2D9
:10357000010E0427D8B0052BD8B4062BD8B4072BDE
:10358000036B026B095303E108513B0805E20A2B68
:10359000D8B40B2B096B086B03C50DF502C50CF5F0
:1035A0000F6B0A0E0E6F0001D2EC07F00501300E12
:1035B00000240401396F03C50DF502C50CF50501A2
:1035C0000F6B0A0E0E6F0001D2EC07F0300E0501F2
:1035D00001240401386F05C50DF504C50CF5040E72
:1035E00005010F6F300E0E6F05C511F504C510F5FE
:1035F0000001F5EC07F009C50DF508C50CF505014E
:103600000F6B0A0E0E6F0001D2EC07F00501300EB1
:1036100000240401456F09C50DF508C50CF5050129
:103620000F6B0A0E0E6F0001D2EC07F0300E050191
:1036300001240401446F040E05010F6F3C0E0E6F50
:103640000BC511F50AC510F50001F5EC07F00401F2
:10365000D5A73CD0D5B33AD0D5B538D0050108535D
:1036600002E1095302E0000E00D00A5302E10B53BD
:1036700002E0000E00D009C50DF508C50CF50F6B72
:103680000A0E0E6F0001D2EC07F00501300E002487
:103690000401456F09C50DF508C50CF505010F6B53
:1036A0000A0E0E6F0001D2EC07F0300E0501012466
:1036B0000401446F040E05010F6F3C0E0E6F0BC525
:1036C00011F50AC510F50001F5EC07F000012AD745
:0236D0000300F5
:087FF800B0B1B2B3B4B5B6B7E5
:020000040030CA
:0E0000003CCE390E0085A1000FC00FE00F406E
:00000001FF
;PIC18F4550
;CRC=2620  CREATED="01-set-23 09:35"
